{
  "_format": "hh-sol-artifact-1",
  "contractName": "ArcadeSwapV3",
  "sourceName": "contracts/ArcadeSwapV3.sol",
  "abi": [
    {
      "anonymous": false,
      "inputs": [
        {
          "indexed": false,
          "internalType": "address",
          "name": "previousAdmin",
          "type": "address"
        },
        {
          "indexed": false,
          "internalType": "address",
          "name": "newAdmin",
          "type": "address"
        }
      ],
      "name": "AdminChanged",
      "type": "event"
    },
    {
      "anonymous": false,
      "inputs": [
        {
          "indexed": true,
          "internalType": "address",
          "name": "beacon",
          "type": "address"
        }
      ],
      "name": "BeaconUpgraded",
      "type": "event"
    },
    {
      "anonymous": false,
      "inputs": [
        {
          "indexed": true,
          "internalType": "uint256",
          "name": "id",
          "type": "uint256"
        },
        {
          "indexed": true,
          "internalType": "uint256",
          "name": "tokenAmount",
          "type": "uint256"
        },
        {
          "indexed": true,
          "internalType": "uint256",
          "name": "gamePointAmount",
          "type": "uint256"
        },
        {
          "indexed": false,
          "internalType": "uint256",
          "name": "lastRate",
          "type": "uint256"
        }
      ],
      "name": "BuyGamePoint",
      "type": "event"
    },
    {
      "anonymous": false,
      "inputs": [
        {
          "indexed": true,
          "internalType": "address",
          "name": "previousOwner",
          "type": "address"
        },
        {
          "indexed": true,
          "internalType": "address",
          "name": "newOwner",
          "type": "address"
        }
      ],
      "name": "OwnershipTransferred",
      "type": "event"
    },
    {
      "anonymous": false,
      "inputs": [
        {
          "indexed": false,
          "internalType": "address",
          "name": "account",
          "type": "address"
        }
      ],
      "name": "Paused",
      "type": "event"
    },
    {
      "anonymous": false,
      "inputs": [
        {
          "indexed": true,
          "internalType": "uint256",
          "name": "id",
          "type": "uint256"
        },
        {
          "indexed": true,
          "internalType": "uint256",
          "name": "tokenAmount",
          "type": "uint256"
        },
        {
          "indexed": true,
          "internalType": "uint256",
          "name": "gamePointAmount",
          "type": "uint256"
        },
        {
          "indexed": false,
          "internalType": "uint256",
          "name": "rate",
          "type": "uint256"
        }
      ],
      "name": "SellGamePoint",
      "type": "event"
    },
    {
      "anonymous": false,
      "inputs": [
        {
          "indexed": false,
          "internalType": "uint256",
          "name": "_duration",
          "type": "uint256"
        }
      ],
      "name": "SetTxDuration",
      "type": "event"
    },
    {
      "anonymous": false,
      "inputs": [
        {
          "indexed": false,
          "internalType": "address",
          "name": "account",
          "type": "address"
        }
      ],
      "name": "Unpaused",
      "type": "event"
    },
    {
      "anonymous": false,
      "inputs": [
        {
          "indexed": true,
          "internalType": "address",
          "name": "implementation",
          "type": "address"
        }
      ],
      "name": "Upgraded",
      "type": "event"
    },
    {
      "inputs": [
        {
          "internalType": "contract IERC20Upgradeable",
          "name": "_arcadeToken",
          "type": "address"
        },
        {
          "internalType": "contract IBEP20Price",
          "name": "_bep20Price",
          "type": "address"
        }
      ],
      "name": "__ArcadeSwap_init",
      "outputs": [],
      "stateMutability": "nonpayable",
      "type": "function"
    },
    {
      "inputs": [],
      "name": "arcadeToken",
      "outputs": [
        {
          "internalType": "contract IERC20Upgradeable",
          "name": "",
          "type": "address"
        }
      ],
      "stateMutability": "view",
      "type": "function"
    },
    {
      "inputs": [],
      "name": "bep20Price",
      "outputs": [
        {
          "internalType": "contract IBEP20Price",
          "name": "",
          "type": "address"
        }
      ],
      "stateMutability": "view",
      "type": "function"
    },
    {
      "inputs": [
        {
          "internalType": "uint256",
          "name": "_id",
          "type": "uint256"
        },
        {
          "internalType": "uint256",
          "name": "_amount",
          "type": "uint256"
        }
      ],
      "name": "buyGamePoint",
      "outputs": [],
      "stateMutability": "nonpayable",
      "type": "function"
    },
    {
      "inputs": [
        {
          "internalType": "uint256",
          "name": "",
          "type": "uint256"
        }
      ],
      "name": "gamePointPrice",
      "outputs": [
        {
          "internalType": "uint256",
          "name": "",
          "type": "uint256"
        }
      ],
      "stateMutability": "view",
      "type": "function"
    },
    {
      "inputs": [
        {
          "internalType": "address",
          "name": "_from",
          "type": "address"
        },
        {
          "internalType": "uint256",
          "name": "_id",
          "type": "uint256"
        }
      ],
      "name": "getGamePointRate",
      "outputs": [
        {
          "internalType": "uint256",
          "name": "",
          "type": "uint256"
        }
      ],
      "stateMutability": "view",
      "type": "function"
    },
    {
      "inputs": [],
      "name": "initialize",
      "outputs": [],
      "stateMutability": "nonpayable",
      "type": "function"
    },
    {
      "inputs": [
        {
          "internalType": "address",
          "name": "_user",
          "type": "address"
        },
        {
          "internalType": "uint256",
          "name": "_id",
          "type": "uint256"
        }
      ],
      "name": "lastTxTime",
      "outputs": [
        {
          "internalType": "uint256",
          "name": "",
          "type": "uint256"
        }
      ],
      "stateMutability": "view",
      "type": "function"
    },
    {
      "inputs": [],
      "name": "owner",
      "outputs": [
        {
          "internalType": "address",
          "name": "",
          "type": "address"
        }
      ],
      "stateMutability": "view",
      "type": "function"
    },
    {
      "inputs": [],
      "name": "paused",
      "outputs": [
        {
          "internalType": "bool",
          "name": "",
          "type": "bool"
        }
      ],
      "stateMutability": "view",
      "type": "function"
    },
    {
      "inputs": [],
      "name": "renounceOwnership",
      "outputs": [],
      "stateMutability": "nonpayable",
      "type": "function"
    },
    {
      "inputs": [
        {
          "internalType": "uint256",
          "name": "_id",
          "type": "uint256"
        },
        {
          "internalType": "uint256",
          "name": "_amount",
          "type": "uint256"
        },
        {
          "internalType": "uint256",
          "name": "_snapshot",
          "type": "uint256"
        },
        {
          "internalType": "bytes32",
          "name": "_verificationData",
          "type": "bytes32"
        }
      ],
      "name": "sellGamePoint",
      "outputs": [],
      "stateMutability": "nonpayable",
      "type": "function"
    },
    {
      "inputs": [
        {
          "internalType": "string",
          "name": "_key",
          "type": "string"
        }
      ],
      "name": "setArcadeBackendKey",
      "outputs": [],
      "stateMutability": "nonpayable",
      "type": "function"
    },
    {
      "inputs": [
        {
          "internalType": "contract IERC20Upgradeable",
          "name": "_arcadeToken",
          "type": "address"
        }
      ],
      "name": "setArcadeToken",
      "outputs": [],
      "stateMutability": "nonpayable",
      "type": "function"
    },
    {
      "inputs": [
        {
          "internalType": "contract IBEP20Price",
          "name": "_bep20Price",
          "type": "address"
        }
      ],
      "name": "setBep20Price",
      "outputs": [],
      "stateMutability": "nonpayable",
      "type": "function"
    },
    {
      "inputs": [
        {
          "internalType": "uint256",
          "name": "_id",
          "type": "uint256"
        },
        {
          "internalType": "uint256",
          "name": "_commission1",
          "type": "uint256"
        },
        {
          "internalType": "uint256",
          "name": "_commission2",
          "type": "uint256"
        },
        {
          "internalType": "address",
          "name": "_treasury1",
          "type": "address"
        },
        {
          "internalType": "address",
          "name": "_treasury2",
          "type": "address"
        }
      ],
      "name": "setCommission",
      "outputs": [],
      "stateMutability": "nonpayable",
      "type": "function"
    },
    {
      "inputs": [
        {
          "internalType": "uint256",
          "name": "_id",
          "type": "uint256"
        },
        {
          "internalType": "string",
          "name": "_key",
          "type": "string"
        }
      ],
      "name": "setGameBackendKey",
      "outputs": [],
      "stateMutability": "nonpayable",
      "type": "function"
    },
    {
      "inputs": [
        {
          "internalType": "uint256",
          "name": "_id",
          "type": "uint256"
        },
        {
          "internalType": "uint256",
          "name": "_price",
          "type": "uint256"
        }
      ],
      "name": "setGamePointPrice",
      "outputs": [],
      "stateMutability": "nonpayable",
      "type": "function"
    },
    {
      "inputs": [
        {
          "internalType": "uint256",
          "name": "_duration",
          "type": "uint256"
        }
      ],
      "name": "setTxDuration",
      "outputs": [],
      "stateMutability": "nonpayable",
      "type": "function"
    },
    {
      "inputs": [
        {
          "internalType": "address",
          "name": "newOwner",
          "type": "address"
        }
      ],
      "name": "transferOwnership",
      "outputs": [],
      "stateMutability": "nonpayable",
      "type": "function"
    },
    {
      "inputs": [
        {
          "internalType": "address",
          "name": "_to",
          "type": "address"
        },
        {
          "internalType": "uint256",
          "name": "_amount",
          "type": "uint256"
        }
      ],
      "name": "transferTo",
      "outputs": [],
      "stateMutability": "nonpayable",
      "type": "function"
    },
    {
      "inputs": [],
      "name": "txDuration",
      "outputs": [
        {
          "internalType": "uint256",
          "name": "",
          "type": "uint256"
        }
      ],
      "stateMutability": "view",
      "type": "function"
    },
    {
      "inputs": [
        {
          "internalType": "address",
          "name": "newImplementation",
          "type": "address"
        }
      ],
      "name": "upgradeTo",
      "outputs": [],
      "stateMutability": "nonpayable",
      "type": "function"
    },
    {
      "inputs": [
        {
          "internalType": "address",
          "name": "newImplementation",
          "type": "address"
        },
        {
          "internalType": "bytes",
          "name": "data",
          "type": "bytes"
        }
      ],
      "name": "upgradeToAndCall",
      "outputs": [],
      "stateMutability": "payable",
      "type": "function"
    },
    {
      "inputs": [],
      "name": "upgradeToV2",
      "outputs": [],
      "stateMutability": "nonpayable",
      "type": "function"
    },
    {
      "inputs": [],
      "name": "upgradeToV3",
      "outputs": [],
      "stateMutability": "nonpayable",
      "type": "function"
    },
    {
      "inputs": [],
      "name": "version",
      "outputs": [
        {
          "internalType": "uint256",
          "name": "",
          "type": "uint256"
        }
      ],
      "stateMutability": "view",
      "type": "function"
    },
    {
      "inputs": [
        {
          "internalType": "uint256",
          "name": "_id",
          "type": "uint256"
        }
      ],
      "name": "viewCommission",
      "outputs": [
        {
          "components": [
            {
              "internalType": "uint256",
              "name": "commission1",
              "type": "uint256"
            },
            {
              "internalType": "uint256",
              "name": "commission2",
              "type": "uint256"
            },
            {
              "internalType": "address",
              "name": "treasuryAddress1",
              "type": "address"
            },
            {
              "internalType": "address",
              "name": "treasuryAddress2",
              "type": "address"
            }
          ],
          "internalType": "struct ArcadeSwapV2.Commission",
          "name": "",
          "type": "tuple"
        }
      ],
      "stateMutability": "view",
      "type": "function"
    }
  ],
  "bytecode": "0x60a06040523073ffffffffffffffffffffffffffffffffffffffff1660809073ffffffffffffffffffffffffffffffffffffffff1660601b81525034801561004657600080fd5b5060805160601c6158f16200007b60003960008181610ff901528181611088015281816111a8015261123701526158f16000f3fe6080604052600436106101b75760003560e01c80638da5cb5b116100ec578063ddc0f3fc1161008a578063e533da3211610064578063e533da3214610599578063f0c07eca146105c4578063f2fde38b146105ed578063f5b6c66114610616576101b7565b8063ddc0f3fc1461050a578063de9cb6c814610547578063e0cd6ef214610570576101b7565b8063b2116657116100c6578063b211665714610476578063cc01053e1461048d578063d4ec15ba146104a4578063dbb2fe63146104cd576101b7565b80638da5cb5b146103e3578063abbc51201461040e578063ac22a7cd1461044b576101b7565b806354fd4d5011610159578063715018a611610133578063715018a61461034d5780637afd4b23146103645780637ebbc9371461038f5780638129fc1c146103cc576101b7565b806354fd4d50146102ce5780635c975abb146102f957806370f9511614610324576101b7565b806333b2bf631161019557806333b2bf63146102375780633659cfe6146102605780634f1ef2861461028957806351d414d9146102a5576101b7565b806309292770146101bc578063218a35e6146101e55780632ccb1b301461020e575b600080fd5b3480156101c857600080fd5b506101e360048036038101906101de919061420c565b61063f565b005b3480156101f157600080fd5b5061020c6004803603810190610207919061420c565b61071c565b005b34801561021a57600080fd5b5061023560048036038101906102309190614032565b610df8565b005b34801561024357600080fd5b5061025e60048036038101906102599190614097565b610f36565b005b34801561026c57600080fd5b5061028760048036038101906102829190613fb5565b610ff7565b005b6102a3600480360381019061029e9190613fde565b6111a6565b005b3480156102b157600080fd5b506102cc60048036038101906102c79190614248565b6112e3565b005b3480156102da57600080fd5b506102e36114b0565b6040516102f09190614dfb565b60405180910390f35b34801561030557600080fd5b5061030e6114b7565b60405161031b91906149dd565b60405180910390f35b34801561033057600080fd5b5061034b600480360381019061034691906140c0565b6114ce565b005b34801561035957600080fd5b5061036261158f565b005b34801561037057600080fd5b50610379611617565b6040516103869190614dfb565b60405180910390f35b34801561039b57600080fd5b506103b660048036038101906103b19190614032565b61161e565b6040516103c39190614dfb565b60405180910390f35b3480156103d857600080fd5b506103e161167a565b005b3480156103ef57600080fd5b506103f86117be565b6040516104059190614939565b60405180910390f35b34801561041a57600080fd5b5061043560048036038101906104309190614032565b6117e8565b6040516104429190614dfb565b60405180910390f35b34801561045757600080fd5b50610460611a3a565b60405161046d91906149f8565b60405180910390f35b34801561048257600080fd5b5061048b611a61565b005b34801561049957600080fd5b506104a2611af4565b005b3480156104b057600080fd5b506104cb60048036038101906104c691906140e9565b611b87565b005b3480156104d957600080fd5b506104f460048036038101906104ef9190614166565b611cee565b6040516105019190614de0565b60405180910390f35b34801561051657600080fd5b50610531600480360381019061052c9190614166565b611e20565b60405161053e9190614dfb565b60405180910390f35b34801561055357600080fd5b5061056e60048036038101906105699190614166565b611e39565b005b34801561057c57600080fd5b50610597600480360381019061059291906141b8565b611f80565b005b3480156105a557600080fd5b506105ae6120c7565b6040516105bb9190614a13565b60405180910390f35b3480156105d057600080fd5b506105eb60048036038101906105e69190614125565b6120ee565b005b3480156105f957600080fd5b50610614600480360381019061060f9190613fb5565b6121df565b005b34801561062257600080fd5b5061063d600480360381019061063891906142bf565b6122d7565b005b610647612821565b73ffffffffffffffffffffffffffffffffffffffff166106656117be565b73ffffffffffffffffffffffffffffffffffffffff16146106bb576040517f08c379a00000000000000000000000000000000000000000000000000000000081526004016106b290614c80565b60405180910390fd5b60008114156106ff576040517f08c379a00000000000000000000000000000000000000000000000000000000081526004016106f690614d40565b60405180910390fd5b806101316000848152602001908152602001600020819055505050565b60026065541415610762576040517f08c379a000000000000000000000000000000000000000000000000000000000815260040161075990614d80565b60405180910390fd5b600260658190555060008214156107ae576040517f08c379a00000000000000000000000000000000000000000000000000000000081526004016107a590614ce0565b60405180910390fd5b60008114156107f2576040517f08c379a00000000000000000000000000000000000000000000000000000000081526004016107e990614aa0565b60405180910390fd5b6000801b610133600084815260200190815260200160002054141561084c576040517f08c379a000000000000000000000000000000000000000000000000000000000815260040161084390614a80565b60405180910390fd5b600061013160008481526020019081526020016000205414156108a4576040517f08c379a000000000000000000000000000000000000000000000000000000000815260040161089b90614c00565b60405180910390fd5b6101365461013760003373ffffffffffffffffffffffffffffffffffffffff1673ffffffffffffffffffffffffffffffffffffffff168152602001908152602001600020600084815260200190815260200160002054426109059190614fbb565b1015610946576040517f08c379a000000000000000000000000000000000000000000000000000000000815260040161093d90614b00565b60405180910390fd5b60006109866127106109786101306000878152602001908152602001600020600001548561282990919063ffffffff16565b61283f90919063ffffffff16565b905060006109c86127106109ba6101306000888152602001908152602001600020600101548661282990919063ffffffff16565b61283f90919063ffffffff16565b90506000821115610a5b57610a5a33610130600087815260200190815260200160002060020160009054906101000a900473ffffffffffffffffffffffffffffffffffffffff168461012e60009054906101000a900473ffffffffffffffffffffffffffffffffffffffff1673ffffffffffffffffffffffffffffffffffffffff16612855909392919063ffffffff16565b5b6000811115610aec57610aeb33610130600087815260200190815260200160002060030160009054906101000a900473ffffffffffffffffffffffffffffffffffffffff168361012e60009054906101000a900473ffffffffffffffffffffffffffffffffffffffff1673ffffffffffffffffffffffffffffffffffffffff16612855909392919063ffffffff16565b5b610b603330610b1684610b0887896128de90919063ffffffff16565b6128de90919063ffffffff16565b61012e60009054906101000a900473ffffffffffffffffffffffffffffffffffffffff1673ffffffffffffffffffffffffffffffffffffffff16612855909392919063ffffffff16565b6000610c5a61013160008781526020019081526020016000205461012f60009054906101000a900473ffffffffffffffffffffffffffffffffffffffff1673ffffffffffffffffffffffffffffffffffffffff1663c9f7153c61012e60009054906101000a900473ffffffffffffffffffffffffffffffffffffffff1660126040518363ffffffff1660e01b8152600401610bfc92919061498b565b60206040518083038186803b158015610c1457600080fd5b505afa158015610c28573d6000803e3d6000fd5b505050506040513d601f19601f82011682018060405250810190610c4c919061418f565b61283f90919063ffffffff16565b90506000610c8a66038d7ea4c68000610c7c848861282990919063ffffffff16565b61283f90919063ffffffff16565b90506000610ca9670de0b6b3a76400008361283f90919063ffffffff16565b9050610cb7338888856128f4565b610cf56040518060400160405280601c81526020017f2d2d2d2d2d2d2d2d42757947616d65506f696e742d2d2d2d2d2d2d2d00000000815250612a3a565b610cfe87612ad3565b610d0786612ad3565b610d1081612ad3565b610d1983612ad3565b610d576040518060400160405280601c81526020017f2d2d2d2d2d2d2d2d2d2d2d2d2d2d2d2d2d2d2d2d2d2d2d2d2d2d2d2d00000000815250612a3a565b4261013760003373ffffffffffffffffffffffffffffffffffffffff1673ffffffffffffffffffffffffffffffffffffffff1681526020019081526020016000206000898152602001908152602001600020819055508086887f4725e36791a1c871eb97da1e96d3071e41c7a9dd27c51d489bef604d114d11a286604051610ddf9190614dfb565b60405180910390a4505050505060016065819055505050565b610e00612821565b73ffffffffffffffffffffffffffffffffffffffff16610e1e6117be565b73ffffffffffffffffffffffffffffffffffffffff1614610e74576040517f08c379a0000000000000000000000000000000000000000000000000000000008152600401610e6b90614c80565b60405180910390fd5b600073ffffffffffffffffffffffffffffffffffffffff168273ffffffffffffffffffffffffffffffffffffffff161415610ee4576040517f08c379a0000000000000000000000000000000000000000000000000000000008152600401610edb90614b20565b60405180910390fd5b610f32828261012e60009054906101000a900473ffffffffffffffffffffffffffffffffffffffff1673ffffffffffffffffffffffffffffffffffffffff16612b6c9092919063ffffffff16565b5050565b610f3e612821565b73ffffffffffffffffffffffffffffffffffffffff16610f5c6117be565b73ffffffffffffffffffffffffffffffffffffffff1614610fb2576040517f08c379a0000000000000000000000000000000000000000000000000000000008152600401610fa990614c80565b60405180910390fd5b8061012f60006101000a81548173ffffffffffffffffffffffffffffffffffffffff021916908373ffffffffffffffffffffffffffffffffffffffff16021790555050565b7f000000000000000000000000000000000000000000000000000000000000000073ffffffffffffffffffffffffffffffffffffffff163073ffffffffffffffffffffffffffffffffffffffff161415611086576040517f08c379a000000000000000000000000000000000000000000000000000000000815260040161107d90614b40565b60405180910390fd5b7f000000000000000000000000000000000000000000000000000000000000000073ffffffffffffffffffffffffffffffffffffffff166110c5612bf2565b73ffffffffffffffffffffffffffffffffffffffff161461111b576040517f08c379a000000000000000000000000000000000000000000000000000000000815260040161111290614ba0565b60405180910390fd5b61112481612c49565b6111a381600067ffffffffffffffff811115611169577f4e487b7100000000000000000000000000000000000000000000000000000000600052604160045260246000fd5b6040519080825280601f01601f19166020018201604052801561119b5781602001600182028036833780820191505090505b506000612cc8565b50565b7f000000000000000000000000000000000000000000000000000000000000000073ffffffffffffffffffffffffffffffffffffffff163073ffffffffffffffffffffffffffffffffffffffff161415611235576040517f08c379a000000000000000000000000000000000000000000000000000000000815260040161122c90614b40565b60405180910390fd5b7f000000000000000000000000000000000000000000000000000000000000000073ffffffffffffffffffffffffffffffffffffffff16611274612bf2565b73ffffffffffffffffffffffffffffffffffffffff16146112ca576040517f08c379a00000000000000000000000000000000000000000000000000000000081526004016112c190614ba0565b60405180910390fd5b6112d382612c49565b6112df82826001612cc8565b5050565b6112eb612821565b73ffffffffffffffffffffffffffffffffffffffff166113096117be565b73ffffffffffffffffffffffffffffffffffffffff161461135f576040517f08c379a000000000000000000000000000000000000000000000000000000000815260040161135690614c80565b60405180910390fd5b60008514156113a3576040517f08c379a000000000000000000000000000000000000000000000000000000000815260040161139a90614ce0565b60405180910390fd5b60405180608001604052808581526020018481526020018373ffffffffffffffffffffffffffffffffffffffff1681526020018273ffffffffffffffffffffffffffffffffffffffff168152506101306000878152602001908152602001600020600082015181600001556020820151816001015560408201518160020160006101000a81548173ffffffffffffffffffffffffffffffffffffffff021916908373ffffffffffffffffffffffffffffffffffffffff16021790555060608201518160030160006101000a81548173ffffffffffffffffffffffffffffffffffffffff021916908373ffffffffffffffffffffffffffffffffffffffff1602179055509050505050505050565b61012d5481565b6000609760009054906101000a900460ff16905090565b6114d6612821565b73ffffffffffffffffffffffffffffffffffffffff166114f46117be565b73ffffffffffffffffffffffffffffffffffffffff161461154a576040517f08c379a000000000000000000000000000000000000000000000000000000000815260040161154190614c80565b60405180910390fd5b8061012e60006101000a81548173ffffffffffffffffffffffffffffffffffffffff021916908373ffffffffffffffffffffffffffffffffffffffff16021790555050565b611597612821565b73ffffffffffffffffffffffffffffffffffffffff166115b56117be565b73ffffffffffffffffffffffffffffffffffffffff161461160b576040517f08c379a000000000000000000000000000000000000000000000000000000000815260040161160290614c80565b60405180910390fd5b6116156000612e99565b565b6101365481565b600061013760008473ffffffffffffffffffffffffffffffffffffffff1673ffffffffffffffffffffffffffffffffffffffff168152602001908152602001600020600083815260200190815260200160002054905092915050565b600060019054906101000a900460ff16806116a0575060008054906101000a900460ff16155b6116df576040517f08c379a00000000000000000000000000000000000000000000000000000000081526004016116d690614c20565b60405180910390fd5b60008060019054906101000a900460ff16159050801561172f576001600060016101000a81548160ff02191690831515021790555060016000806101000a81548160ff0219169083151502179055505b611737612f5f565b61173f613048565b611747613129565b61174f613212565b600161012d8190555061179a6040518060400160405280600181526020017f760000000000000000000000000000000000000000000000000000000000000081525061012d546132fb565b80156117bb5760008060016101000a81548160ff0219169083151502179055505b50565b6000603360009054906101000a900473ffffffffffffffffffffffffffffffffffffffff16905090565b60008061013560008573ffffffffffffffffffffffffffffffffffffffff1673ffffffffffffffffffffffffffffffffffffffff16815260200190815260200160002060008481526020019081526020016000205414156119625761195b61012f60009054906101000a900473ffffffffffffffffffffffffffffffffffffffff1673ffffffffffffffffffffffffffffffffffffffff1663c9f7153c61012e60009054906101000a900473ffffffffffffffffffffffffffffffffffffffff1660126040518363ffffffff1660e01b81526004016118c892919061498b565b60206040518083038186803b1580156118e057600080fd5b505afa1580156118f4573d6000803e3d6000fd5b505050506040513d601f19601f82011682018060405250810190611918919061418f565b61194d6d314dc6448d9338c15b0a0000000061013160008781526020019081526020016000205461282990919063ffffffff16565b61283f90919063ffffffff16565b9050611a34565b611a3161013560008573ffffffffffffffffffffffffffffffffffffffff1673ffffffffffffffffffffffffffffffffffffffff168152602001908152602001600020600084815260200190815260200160002054611a23670de0b6b3a764000061013460008873ffffffffffffffffffffffffffffffffffffffff1673ffffffffffffffffffffffffffffffffffffffff16815260200190815260200160002060008781526020019081526020016000205461282990919063ffffffff16565b61283f90919063ffffffff16565b90505b92915050565b61012f60009054906101000a900473ffffffffffffffffffffffffffffffffffffffff1681565b600361012d5410611aa7576040517f08c379a0000000000000000000000000000000000000000000000000000000008152600401611a9e90614d00565b60405180910390fd5b600361012d81905550611af26040518060400160405280600181526020017f760000000000000000000000000000000000000000000000000000000000000081525061012d546132fb565b565b600261012d5410611b3a576040517f08c379a0000000000000000000000000000000000000000000000000000000008152600401611b3190614da0565b60405180910390fd5b600261012d81905550611b856040518060400160405280600181526020017f760000000000000000000000000000000000000000000000000000000000000081525061012d546132fb565b565b600060019054906101000a900460ff1680611bad575060008054906101000a900460ff16155b611bec576040517f08c379a0000000000000000000000000000000000000000000000000000000008152600401611be390614c20565b60405180910390fd5b60008060019054906101000a900460ff161590508015611c3c576001600060016101000a81548160ff02191690831515021790555060016000806101000a81548160ff0219169083151502179055505b611c4461167a565b8261012e60006101000a81548173ffffffffffffffffffffffffffffffffffffffff021916908373ffffffffffffffffffffffffffffffffffffffff1602179055508161012f60006101000a81548173ffffffffffffffffffffffffffffffffffffffff021916908373ffffffffffffffffffffffffffffffffffffffff1602179055508015611ce95760008060016101000a81548160ff0219169083151502179055505b505050565b611cf6613dfe565b6000821415611d3a576040517f08c379a0000000000000000000000000000000000000000000000000000000008152600401611d3190614ce0565b60405180910390fd5b610130600083815260200190815260200160002060405180608001604052908160008201548152602001600182015481526020016002820160009054906101000a900473ffffffffffffffffffffffffffffffffffffffff1673ffffffffffffffffffffffffffffffffffffffff1673ffffffffffffffffffffffffffffffffffffffff1681526020016003820160009054906101000a900473ffffffffffffffffffffffffffffffffffffffff1673ffffffffffffffffffffffffffffffffffffffff1673ffffffffffffffffffffffffffffffffffffffff16815250509050919050565b6101316020528060005260406000206000915090505481565b611e41612821565b73ffffffffffffffffffffffffffffffffffffffff16611e5f6117be565b73ffffffffffffffffffffffffffffffffffffffff1614611eb5576040517f08c379a0000000000000000000000000000000000000000000000000000000008152600401611eac90614c80565b60405180910390fd5b60008111611ef8576040517f08c379a0000000000000000000000000000000000000000000000000000000008152600401611eef90614c40565b60405180910390fd5b80610136541415611f3e576040517f08c379a0000000000000000000000000000000000000000000000000000000008152600401611f3590614be0565b60405180910390fd5b80610136819055507f3e708db8fd81407fcdc49d551e106b475c77fc5ab085e189911e2ba1270061d981604051611f759190614dfb565b60405180910390a150565b611f88612821565b73ffffffffffffffffffffffffffffffffffffffff16611fa66117be565b73ffffffffffffffffffffffffffffffffffffffff1614611ffc576040517f08c379a0000000000000000000000000000000000000000000000000000000008152600401611ff390614c80565b60405180910390fd5b6000821415612040576040517f08c379a000000000000000000000000000000000000000000000000000000000815260040161203790614ce0565b60405180910390fd5b6000815111612084576040517f08c379a000000000000000000000000000000000000000000000000000000000815260040161207b90614b60565b60405180910390fd5b806040516020016120959190614897565b604051602081830303815290604052805190602001206101336000848152602001908152602001600020819055505050565b61012e60009054906101000a900473ffffffffffffffffffffffffffffffffffffffff1681565b6120f6612821565b73ffffffffffffffffffffffffffffffffffffffff166121146117be565b73ffffffffffffffffffffffffffffffffffffffff161461216a576040517f08c379a000000000000000000000000000000000000000000000000000000000815260040161216190614c80565b60405180910390fd5b60008151116121ae576040517f08c379a00000000000000000000000000000000000000000000000000000000081526004016121a590614b60565b60405180910390fd5b806040516020016121bf9190614897565b604051602081830303815290604052805190602001206101328190555050565b6121e7612821565b73ffffffffffffffffffffffffffffffffffffffff166122056117be565b73ffffffffffffffffffffffffffffffffffffffff161461225b576040517f08c379a000000000000000000000000000000000000000000000000000000000815260040161225290614c80565b60405180910390fd5b600073ffffffffffffffffffffffffffffffffffffffff168173ffffffffffffffffffffffffffffffffffffffff1614156122cb576040517f08c379a00000000000000000000000000000000000000000000000000000000081526004016122c290614ae0565b60405180910390fd5b6122d481612e99565b50565b6002606554141561231d576040517f08c379a000000000000000000000000000000000000000000000000000000000815260040161231490614d80565b60405180910390fd5b60026065819055506123328133868686613397565b612371576040517f08c379a000000000000000000000000000000000000000000000000000000000815260040161236890614dc0565b60405180910390fd5b6101365461013760003373ffffffffffffffffffffffffffffffffffffffff1673ffffffffffffffffffffffffffffffffffffffff168152602001908152602001600020600086815260200190815260200160002054426123d29190614fbb565b1015612413576040517f08c379a000000000000000000000000000000000000000000000000000000000815260040161240a90614b00565b60405180910390fd5b8161013760003373ffffffffffffffffffffffffffffffffffffffff1673ffffffffffffffffffffffffffffffffffffffff168152602001908152602001600020600086815260200190815260200160002054106124a6576040517f08c379a000000000000000000000000000000000000000000000000000000000815260040161249d90614ca0565b60405180910390fd5b60006124b233866117e8565b905060006124c9828661282990919063ffffffff16565b9050600061250b6127106124fd61013060008b8152602001908152602001600020600001548561282990919063ffffffff16565b61283f90919063ffffffff16565b9050600061254d61271061253f61013060008c8152602001908152602001600020600101548661282990919063ffffffff16565b61283f90919063ffffffff16565b905060008211156125de576125dd61013060008a815260200190815260200160002060020160009054906101000a900473ffffffffffffffffffffffffffffffffffffffff168361012e60009054906101000a900473ffffffffffffffffffffffffffffffffffffffff1673ffffffffffffffffffffffffffffffffffffffff16612b6c9092919063ffffffff16565b5b600081111561266d5761266c61013060008a815260200190815260200160002060030160009054906101000a900473ffffffffffffffffffffffffffffffffffffffff168261012e60009054906101000a900473ffffffffffffffffffffffffffffffffffffffff1673ffffffffffffffffffffffffffffffffffffffff16612b6c9092919063ffffffff16565b5b6126df336126968361268886886128de90919063ffffffff16565b6128de90919063ffffffff16565b61012e60009054906101000a900473ffffffffffffffffffffffffffffffffffffffff1673ffffffffffffffffffffffffffffffffffffffff16612b6c9092919063ffffffff16565b61271d6040518060400160405280601d81526020017f2d2d2d2d2d2d2d2d53656c6c47616d65506f696e742d2d2d2d2d2d2d2d000000815250612a3a565b61272688612ad3565b61272f83612ad3565b61273887612ad3565b61274184612ad3565b61277f6040518060400160405280601c81526020017f2d2d2d2d2d2d2d2d2d2d2d2d2d2d2d2d2d2d2d2d2d2d2d2d2d2d2d2d00000000815250612a3a565b4261013760003373ffffffffffffffffffffffffffffffffffffffff1673ffffffffffffffffffffffffffffffffffffffff16815260200190815260200160002060008a8152602001908152602001600020819055508683897f8b9e103600fd30f68595f82fb3c9af8a84ed316d3910137f229ebb8ad210c9a7876040516128079190614dfb565b60405180910390a450505050600160658190555050505050565b600033905090565b600081836128379190614f61565b905092915050565b6000818361284d9190614f30565b905092915050565b6128d8846323b872dd60e01b85858560405160240161287693929190614954565b604051602081830303815290604052907bffffffffffffffffffffffffffffffffffffffffffffffffffffffff19166020820180517bffffffffffffffffffffffffffffffffffffffffffffffffffffffff838183161783525050505061341f565b50505050565b600081836128ec9190614fbb565b905092915050565b600073ffffffffffffffffffffffffffffffffffffffff168473ffffffffffffffffffffffffffffffffffffffff161415612964576040517f08c379a000000000000000000000000000000000000000000000000000000000815260040161295b90614b80565b60405180910390fd5b8161013460008673ffffffffffffffffffffffffffffffffffffffff1673ffffffffffffffffffffffffffffffffffffffff168152602001908152602001600020600085815260200190815260200160002060008282546129c59190614eda565b925050819055508061013560008673ffffffffffffffffffffffffffffffffffffffff1673ffffffffffffffffffffffffffffffffffffffff16815260200190815260200160002060008581526020019081526020016000206000828254612a2d9190614eda565b9250508190555050505050565b612ad081604051602401612a4e9190614a2e565b6040516020818303038152906040527f41304fac000000000000000000000000000000000000000000000000000000007bffffffffffffffffffffffffffffffffffffffffffffffffffffffff19166020820180517bffffffffffffffffffffffffffffffffffffffffffffffffffffffff83818316178352505050506134e6565b50565b612b6981604051602401612ae79190614dfb565b6040516020818303038152906040527ff5b1bba9000000000000000000000000000000000000000000000000000000007bffffffffffffffffffffffffffffffffffffffffffffffffffffffff19166020820180517bffffffffffffffffffffffffffffffffffffffffffffffffffffffff83818316178352505050506134e6565b50565b612bed8363a9059cbb60e01b8484604051602401612b8b9291906149b4565b604051602081830303815290604052907bffffffffffffffffffffffffffffffffffffffffffffffffffffffff19166020820180517bffffffffffffffffffffffffffffffffffffffffffffffffffffffff838183161783525050505061341f565b505050565b6000612c207f360894a13ba1a3210667c828492db98dca3e2076cc3735a920a3ca505d382bbc60001b61350f565b60000160009054906101000a900473ffffffffffffffffffffffffffffffffffffffff16905090565b612c51612821565b73ffffffffffffffffffffffffffffffffffffffff16612c6f6117be565b73ffffffffffffffffffffffffffffffffffffffff1614612cc5576040517f08c379a0000000000000000000000000000000000000000000000000000000008152600401612cbc90614c80565b60405180910390fd5b50565b6000612cd2612bf2565b9050612cdd84613519565b600083511180612cea5750815b15612cfb57612cf984846135d2565b505b6000612d297f4910fdfa16fed3260ed0e7147f7cc6da11a60208b5b9406d12a635614ffd914360001b6136b6565b90508060000160009054906101000a900460ff16612e925760018160000160006101000a81548160ff021916908315150217905550612df58583604051602401612d739190614939565b6040516020818303038152906040527f3659cfe6000000000000000000000000000000000000000000000000000000007bffffffffffffffffffffffffffffffffffffffffffffffffffffffff19166020820180517bffffffffffffffffffffffffffffffffffffffffffffffffffffffff83818316178352505050506135d2565b5060008160000160006101000a81548160ff021916908315150217905550612e1b612bf2565b73ffffffffffffffffffffffffffffffffffffffff168273ffffffffffffffffffffffffffffffffffffffff1614612e88576040517f08c379a0000000000000000000000000000000000000000000000000000000008152600401612e7f90614ac0565b60405180910390fd5b612e91856136c0565b5b5050505050565b6000603360009054906101000a900473ffffffffffffffffffffffffffffffffffffffff16905081603360006101000a81548173ffffffffffffffffffffffffffffffffffffffff021916908373ffffffffffffffffffffffffffffffffffffffff1602179055508173ffffffffffffffffffffffffffffffffffffffff168173ffffffffffffffffffffffffffffffffffffffff167f8be0079c531659141344cd1fd0a4f28419497f9722a3daafe3b4186f6b6457e060405160405180910390a35050565b600060019054906101000a900460ff1680612f85575060008054906101000a900460ff16155b612fc4576040517f08c379a0000000000000000000000000000000000000000000000000000000008152600401612fbb90614c20565b60405180910390fd5b60008060019054906101000a900460ff161590508015613014576001600060016101000a81548160ff02191690831515021790555060016000806101000a81548160ff0219169083151502179055505b61301c61370f565b6130246137e8565b80156130455760008060016101000a81548160ff0219169083151502179055505b50565b600060019054906101000a900460ff168061306e575060008054906101000a900460ff16155b6130ad576040517f08c379a00000000000000000000000000000000000000000000000000000000081526004016130a490614c20565b60405180910390fd5b60008060019054906101000a900460ff1615905080156130fd576001600060016101000a81548160ff02191690831515021790555060016000806101000a81548160ff0219169083151502179055505b6131056138d1565b80156131265760008060016101000a81548160ff0219169083151502179055505b50565b600060019054906101000a900460ff168061314f575060008054906101000a900460ff16155b61318e576040517f08c379a000000000000000000000000000000000000000000000000000000000815260040161318590614c20565b60405180910390fd5b60008060019054906101000a900460ff1615905080156131de576001600060016101000a81548160ff02191690831515021790555060016000806101000a81548160ff0219169083151502179055505b6131e661370f565b6131ee6139b2565b801561320f5760008060016101000a81548160ff0219169083151502179055505b50565b600060019054906101000a900460ff1680613238575060008054906101000a900460ff16155b613277576040517f08c379a000000000000000000000000000000000000000000000000000000000815260040161326e90614c20565b60405180910390fd5b60008060019054906101000a900460ff1615905080156132c7576001600060016101000a81548160ff02191690831515021790555060016000806101000a81548160ff0219169083151502179055505b6132cf613aa6565b6132d7613b7f565b80156132f85760008060016101000a81548160ff0219169083151502179055505b50565b6133938282604051602401613311929190614a50565b6040516020818303038152906040527f9710a9d0000000000000000000000000000000000000000000000000000000007bffffffffffffffffffffffffffffffffffffffffffffffffffffffff19166020820180517bffffffffffffffffffffffffffffffffffffffffffffffffffffffff83818316178352505050506134e6565b5050565b6000808486856101336000898152602001908152602001600020546040516020016133c594939291906148ae565b60405160208183030381529060405280519060200120905060008382610132546040516020016133f7939291906148fc565b6040516020818303038152906040528051906020012090508088149250505095945050505050565b6000613481826040518060400160405280602081526020017f5361666545524332303a206c6f772d6c6576656c2063616c6c206661696c65648152508573ffffffffffffffffffffffffffffffffffffffff16613c589092919063ffffffff16565b90506000815111156134e157808060200190518101906134a1919061406e565b6134e0576040517f08c379a00000000000000000000000000000000000000000000000000000000081526004016134d790614d60565b60405180910390fd5b5b505050565b60008151905060006a636f6e736f6c652e6c6f679050602083016000808483855afa5050505050565b6000819050919050565b61352281613c70565b613561576040517f08c379a000000000000000000000000000000000000000000000000000000000815260040161355890614c60565b60405180910390fd5b8061358e7f360894a13ba1a3210667c828492db98dca3e2076cc3735a920a3ca505d382bbc60001b61350f565b60000160006101000a81548173ffffffffffffffffffffffffffffffffffffffff021916908373ffffffffffffffffffffffffffffffffffffffff16021790555050565b60606135dd83613c70565b61361c576040517f08c379a000000000000000000000000000000000000000000000000000000000815260040161361390614cc0565b60405180910390fd5b6000808473ffffffffffffffffffffffffffffffffffffffff16846040516136449190614880565b600060405180830381855af49150503d806000811461367f576040519150601f19603f3d011682016040523d82523d6000602084013e613684565b606091505b50915091506136ac828260405180606001604052806027815260200161589560279139613c83565b9250505092915050565b6000819050919050565b6136c981613519565b8073ffffffffffffffffffffffffffffffffffffffff167fbc7cd75a20ee27fd9adebab32041f755214dbc6bffa90cc0225b39da2e5c2d3b60405160405180910390a250565b600060019054906101000a900460ff1680613735575060008054906101000a900460ff16155b613774576040517f08c379a000000000000000000000000000000000000000000000000000000000815260040161376b90614c20565b60405180910390fd5b60008060019054906101000a900460ff1615905080156137c4576001600060016101000a81548160ff02191690831515021790555060016000806101000a81548160ff0219169083151502179055505b80156137e55760008060016101000a81548160ff0219169083151502179055505b50565b600060019054906101000a900460ff168061380e575060008054906101000a900460ff16155b61384d576040517f08c379a000000000000000000000000000000000000000000000000000000000815260040161384490614c20565b60405180910390fd5b60008060019054906101000a900460ff16159050801561389d576001600060016101000a81548160ff02191690831515021790555060016000806101000a81548160ff0219169083151502179055505b6138ad6138a8612821565b612e99565b80156138ce5760008060016101000a81548160ff0219169083151502179055505b50565b600060019054906101000a900460ff16806138f7575060008054906101000a900460ff16155b613936576040517f08c379a000000000000000000000000000000000000000000000000000000000815260040161392d90614c20565b60405180910390fd5b60008060019054906101000a900460ff161590508015613986576001600060016101000a81548160ff02191690831515021790555060016000806101000a81548160ff0219169083151502179055505b600160658190555080156139af5760008060016101000a81548160ff0219169083151502179055505b50565b600060019054906101000a900460ff16806139d8575060008054906101000a900460ff16155b613a17576040517f08c379a0000000000000000000000000000000000000000000000000000000008152600401613a0e90614c20565b60405180910390fd5b60008060019054906101000a900460ff161590508015613a67576001600060016101000a81548160ff02191690831515021790555060016000806101000a81548160ff0219169083151502179055505b6000609760006101000a81548160ff0219169083151502179055508015613aa35760008060016101000a81548160ff0219169083151502179055505b50565b600060019054906101000a900460ff1680613acc575060008054906101000a900460ff16155b613b0b576040517f08c379a0000000000000000000000000000000000000000000000000000000008152600401613b0290614c20565b60405180910390fd5b60008060019054906101000a900460ff161590508015613b5b576001600060016101000a81548160ff02191690831515021790555060016000806101000a81548160ff0219169083151502179055505b8015613b7c5760008060016101000a81548160ff0219169083151502179055505b50565b600060019054906101000a900460ff1680613ba5575060008054906101000a900460ff16155b613be4576040517f08c379a0000000000000000000000000000000000000000000000000000000008152600401613bdb90614c20565b60405180910390fd5b60008060019054906101000a900460ff161590508015613c34576001600060016101000a81548160ff02191690831515021790555060016000806101000a81548160ff0219169083151502179055505b8015613c555760008060016101000a81548160ff0219169083151502179055505b50565b6060613c678484600085613cea565b90509392505050565b600080823b905060008111915050919050565b60608315613c9357829050613ce3565b600083511115613ca65782518084602001fd5b816040517f08c379a0000000000000000000000000000000000000000000000000000000008152600401613cda9190614a2e565b60405180910390fd5b9392505050565b606082471015613d2f576040517f08c379a0000000000000000000000000000000000000000000000000000000008152600401613d2690614bc0565b60405180910390fd5b613d3885613c70565b613d77576040517f08c379a0000000000000000000000000000000000000000000000000000000008152600401613d6e90614d20565b60405180910390fd5b6000808673ffffffffffffffffffffffffffffffffffffffff168587604051613da09190614880565b60006040518083038185875af1925050503d8060008114613ddd576040519150601f19603f3d011682016040523d82523d6000602084013e613de2565b606091505b5091509150613df2828286613c83565b92505050949350505050565b60405180608001604052806000815260200160008152602001600073ffffffffffffffffffffffffffffffffffffffff168152602001600073ffffffffffffffffffffffffffffffffffffffff1681525090565b6000613e65613e6084614e3b565b614e16565b905082815260208101848484011115613e7d57600080fd5b613e888482856150bf565b509392505050565b6000613ea3613e9e84614e6c565b614e16565b905082815260208101848484011115613ebb57600080fd5b613ec68482856150bf565b509392505050565b600081359050613edd8161580a565b92915050565b600081519050613ef281615821565b92915050565b600081359050613f0781615838565b92915050565b600082601f830112613f1e57600080fd5b8135613f2e848260208601613e52565b91505092915050565b600081359050613f468161584f565b92915050565b600081359050613f5b81615866565b92915050565b600082601f830112613f7257600080fd5b8135613f82848260208601613e90565b91505092915050565b600081359050613f9a8161587d565b92915050565b600081519050613faf8161587d565b92915050565b600060208284031215613fc757600080fd5b6000613fd584828501613ece565b91505092915050565b60008060408385031215613ff157600080fd5b6000613fff85828601613ece565b925050602083013567ffffffffffffffff81111561401c57600080fd5b61402885828601613f0d565b9150509250929050565b6000806040838503121561404557600080fd5b600061405385828601613ece565b925050602061406485828601613f8b565b9150509250929050565b60006020828403121561408057600080fd5b600061408e84828501613ee3565b91505092915050565b6000602082840312156140a957600080fd5b60006140b784828501613f37565b91505092915050565b6000602082840312156140d257600080fd5b60006140e084828501613f4c565b91505092915050565b600080604083850312156140fc57600080fd5b600061410a85828601613f4c565b925050602061411b85828601613f37565b9150509250929050565b60006020828403121561413757600080fd5b600082013567ffffffffffffffff81111561415157600080fd5b61415d84828501613f61565b91505092915050565b60006020828403121561417857600080fd5b600061418684828501613f8b565b91505092915050565b6000602082840312156141a157600080fd5b60006141af84828501613fa0565b91505092915050565b600080604083850312156141cb57600080fd5b60006141d985828601613f8b565b925050602083013567ffffffffffffffff8111156141f657600080fd5b61420285828601613f61565b9150509250929050565b6000806040838503121561421f57600080fd5b600061422d85828601613f8b565b925050602061423e85828601613f8b565b9150509250929050565b600080600080600060a0868803121561426057600080fd5b600061426e88828901613f8b565b955050602061427f88828901613f8b565b945050604061429088828901613f8b565b93505060606142a188828901613ece565b92505060806142b288828901613ece565b9150509295509295909350565b600080600080608085870312156142d557600080fd5b60006142e387828801613f8b565b94505060206142f487828801613f8b565b935050604061430587828801613f8b565b925050606061431687828801613ef8565b91505092959194509250565b61432b81614fef565b82525050565b61433a81614fef565b82525050565b61435161434c82614fef565b615132565b82525050565b61436081615001565b82525050565b6143776143728261500d565b615144565b82525050565b600061438882614e9d565b6143928185614eb3565b93506143a28185602086016150ce565b80840191505092915050565b6143b781615065565b82525050565b6143c681615089565b82525050565b6143d5816150ad565b82525050565b60006143e682614ea8565b6143f08185614ebe565b93506144008185602086016150ce565b614409816151f7565b840191505092915050565b600061441f82614ea8565b6144298185614ecf565b93506144398185602086016150ce565b80840191505092915050565b6000614452601883614ebe565b915061445d82615215565b602082019050919050565b6000614475601483614ebe565b91506144808261523e565b602082019050919050565b6000614498602f83614ebe565b91506144a382615267565b604082019050919050565b60006144bb602683614ebe565b91506144c6826152b6565b604082019050919050565b60006144de601a83614ebe565b91506144e982615305565b602082019050919050565b6000614501601983614ebe565b915061450c8261532e565b602082019050919050565b6000614524602c83614ebe565b915061452f82615357565b604082019050919050565b6000614547601883614ebe565b9150614552826153a6565b602082019050919050565b600061456a601683614ebe565b9150614575826153cf565b602082019050919050565b600061458d602c83614ebe565b9150614598826153f8565b604082019050919050565b60006145b0602683614ebe565b91506145bb82615447565b604082019050919050565b60006145d3601283614ebe565b91506145de82615496565b602082019050919050565b60006145f6602083614ebe565b9150614601826154bf565b602082019050919050565b6000614619602e83614ebe565b9150614624826154e8565b604082019050919050565b600061463c601183614ebe565b915061464782615537565b602082019050919050565b600061465f602d83614ebe565b915061466a82615560565b604082019050919050565b6000614682602083614ebe565b915061468d826155af565b602082019050919050565b60006146a5601d83614ebe565b91506146b0826155d8565b602082019050919050565b60006146c8602683614ebe565b91506146d382615601565b604082019050919050565b60006146eb601583614ebe565b91506146f682615650565b602082019050919050565b600061470e602d83614ebe565b915061471982615679565b604082019050919050565b6000614731601d83614ebe565b915061473c826156c8565b602082019050919050565b6000614754601483614ebe565b915061475f826156f1565b602082019050919050565b6000614777602a83614ebe565b91506147828261571a565b604082019050919050565b600061479a601f83614ebe565b91506147a582615769565b602082019050919050565b60006147bd602d83614ebe565b91506147c882615792565b604082019050919050565b60006147e0601f83614ebe565b91506147eb826157e1565b602082019050919050565b60808201600082015161480c600085018261484b565b50602082015161481f602085018261484b565b5060408201516148326040850182614322565b5060608201516148456060850182614322565b50505050565b6148548161505b565b82525050565b6148638161505b565b82525050565b61487a6148758261505b565b615160565b82525050565b600061488c828461437d565b915081905092915050565b60006148a38284614414565b915081905092915050565b60006148ba8287614869565b6020820191506148ca8286614340565b6014820191506148da8285614869565b6020820191506148ea8284614366565b60208201915081905095945050505050565b60006149088286614869565b6020820191506149188285614366565b6020820191506149288284614366565b602082019150819050949350505050565b600060208201905061494e6000830184614331565b92915050565b60006060820190506149696000830186614331565b6149766020830185614331565b614983604083018461485a565b949350505050565b60006040820190506149a06000830185614331565b6149ad60208301846143cc565b9392505050565b60006040820190506149c96000830185614331565b6149d6602083018461485a565b9392505050565b60006020820190506149f26000830184614357565b92915050565b6000602082019050614a0d60008301846143ae565b92915050565b6000602082019050614a2860008301846143bd565b92915050565b60006020820190508181036000830152614a4881846143db565b905092915050565b60006040820190508181036000830152614a6a81856143db565b9050614a79602083018461485a565b9392505050565b60006020820190508181036000830152614a9981614445565b9050919050565b60006020820190508181036000830152614ab981614468565b9050919050565b60006020820190508181036000830152614ad98161448b565b9050919050565b60006020820190508181036000830152614af9816144ae565b9050919050565b60006020820190508181036000830152614b19816144d1565b9050919050565b60006020820190508181036000830152614b39816144f4565b9050919050565b60006020820190508181036000830152614b5981614517565b9050919050565b60006020820190508181036000830152614b798161453a565b9050919050565b60006020820190508181036000830152614b998161455d565b9050919050565b60006020820190508181036000830152614bb981614580565b9050919050565b60006020820190508181036000830152614bd9816145a3565b9050919050565b60006020820190508181036000830152614bf9816145c6565b9050919050565b60006020820190508181036000830152614c19816145e9565b9050919050565b60006020820190508181036000830152614c398161460c565b9050919050565b60006020820190508181036000830152614c598161462f565b9050919050565b60006020820190508181036000830152614c7981614652565b9050919050565b60006020820190508181036000830152614c9981614675565b9050919050565b60006020820190508181036000830152614cb981614698565b9050919050565b60006020820190508181036000830152614cd9816146bb565b9050919050565b60006020820190508181036000830152614cf9816146de565b9050919050565b60006020820190508181036000830152614d1981614701565b9050919050565b60006020820190508181036000830152614d3981614724565b9050919050565b60006020820190508181036000830152614d5981614747565b9050919050565b60006020820190508181036000830152614d798161476a565b9050919050565b60006020820190508181036000830152614d998161478d565b9050919050565b60006020820190508181036000830152614db9816147b0565b9050919050565b60006020820190508181036000830152614dd9816147d3565b9050919050565b6000608082019050614df560008301846147f6565b92915050565b6000602082019050614e10600083018461485a565b92915050565b6000614e20614e31565b9050614e2c8282615101565b919050565b6000604051905090565b600067ffffffffffffffff821115614e5657614e556151c8565b5b614e5f826151f7565b9050602081019050919050565b600067ffffffffffffffff821115614e8757614e866151c8565b5b614e90826151f7565b9050602081019050919050565b600081519050919050565b600081519050919050565b600081905092915050565b600082825260208201905092915050565b600081905092915050565b6000614ee58261505b565b9150614ef08361505b565b9250827fffffffffffffffffffffffffffffffffffffffffffffffffffffffffffffffff03821115614f2557614f2461516a565b5b828201905092915050565b6000614f3b8261505b565b9150614f468361505b565b925082614f5657614f55615199565b5b828204905092915050565b6000614f6c8261505b565b9150614f778361505b565b9250817fffffffffffffffffffffffffffffffffffffffffffffffffffffffffffffffff0483118215151615614fb057614faf61516a565b5b828202905092915050565b6000614fc68261505b565b9150614fd18361505b565b925082821015614fe457614fe361516a565b5b828203905092915050565b6000614ffa8261503b565b9050919050565b60008115159050919050565b6000819050919050565b600061502282614fef565b9050919050565b600061503482614fef565b9050919050565b600073ffffffffffffffffffffffffffffffffffffffff82169050919050565b6000819050919050565b600061507082615077565b9050919050565b60006150828261503b565b9050919050565b60006150948261509b565b9050919050565b60006150a68261503b565b9050919050565b60006150b88261505b565b9050919050565b82818337600083830152505050565b60005b838110156150ec5780820151818401526020810190506150d1565b838111156150fb576000848401525b50505050565b61510a826151f7565b810181811067ffffffffffffffff82111715615129576151286151c8565b5b80604052505050565b600061513d8261514e565b9050919050565b6000819050919050565b600061515982615208565b9050919050565b6000819050919050565b7f4e487b7100000000000000000000000000000000000000000000000000000000600052601160045260246000fd5b7f4e487b7100000000000000000000000000000000000000000000000000000000600052601260045260246000fd5b7f4e487b7100000000000000000000000000000000000000000000000000000000600052604160045260246000fd5b6000601f19601f8301169050919050565b60008160601b9050919050565b7f4e6f7420726567697374657265642067616d65206b65792e0000000000000000600082015250565b7f616d6f756e742063616e2774206265207a65726f000000000000000000000000600082015250565b7f45524331393637557067726164653a207570677261646520627265616b73206660008201527f7572746865722075706772616465730000000000000000000000000000000000602082015250565b7f4f776e61626c653a206e6577206f776e657220697320746865207a65726f206160008201527f6464726573730000000000000000000000000000000000000000000000000000602082015250565b7f4e6f742074696d6520746f206275792047616d6520506f696e74000000000000600082015250565b7f5472616e7366657220746f207a65726f20616464726573732e00000000000000600082015250565b7f46756e6374696f6e206d7573742062652063616c6c6564207468726f7567682060008201527f64656c656761746563616c6c0000000000000000000000000000000000000000602082015250565b7f6b65792063616e2774206265206e6f6e6520737472696e670000000000000000600082015250565b7f416464726573732063616e2774206265207a65726f2e00000000000000000000600082015250565b7f46756e6374696f6e206d7573742062652063616c6c6564207468726f7567682060008201527f6163746976652070726f78790000000000000000000000000000000000000000602082015250565b7f416464726573733a20696e73756666696369656e742062616c616e636520666f60008201527f722063616c6c0000000000000000000000000000000000000000000000000000602082015250565b7f446966666572656e74206475726174696f6e0000000000000000000000000000600082015250565b7f4e6f7420726567697374657265642067616d6520706f696e742070726963652e600082015250565b7f496e697469616c697a61626c653a20636f6e747261637420697320616c72656160008201527f647920696e697469616c697a6564000000000000000000000000000000000000602082015250565b7f4e6f6e2d7a65726f206475726174696f6e000000000000000000000000000000600082015250565b7f455243313936373a206e657720696d706c656d656e746174696f6e206973206e60008201527f6f74206120636f6e747261637400000000000000000000000000000000000000602082015250565b7f4f776e61626c653a2063616c6c6572206973206e6f7420746865206f776e6572600082015250565b7f416c72656164792070726f636573736564207472616e73616374696f6e000000600082015250565b7f416464726573733a2064656c65676174652063616c6c20746f206e6f6e2d636f60008201527f6e74726163740000000000000000000000000000000000000000000000000000602082015250565b7f67616d652069642063616e2774206265207a65726f0000000000000000000000600082015250565b7f5370656369616c4c6f74746572793a20416c726561647920757067726164656460008201527f20746f2076657273696f6e203300000000000000000000000000000000000000602082015250565b7f416464726573733a2063616c6c20746f206e6f6e2d636f6e7472616374000000600082015250565b7f50726963652063616e2774206265207a65726f2e000000000000000000000000600082015250565b7f5361666545524332303a204552433230206f7065726174696f6e20646964206e60008201527f6f74207375636365656400000000000000000000000000000000000000000000602082015250565b7f5265656e7472616e637947756172643a207265656e7472616e742063616c6c00600082015250565b7f5370656369616c4c6f74746572793a20416c726561647920757067726164656460008201527f20746f2076657273696f6e203400000000000000000000000000000000000000602082015250565b7f566572696669636174696f6e206461746120697320696e636f72726563742e00600082015250565b61581381614fef565b811461581e57600080fd5b50565b61582a81615001565b811461583557600080fd5b50565b6158418161500d565b811461584c57600080fd5b50565b61585881615017565b811461586357600080fd5b50565b61586f81615029565b811461587a57600080fd5b50565b6158868161505b565b811461589157600080fd5b5056fe416464726573733a206c6f772d6c6576656c2064656c65676174652063616c6c206661696c6564a264697066735822122057f0bbd4a1d32eec91ea00cc3bf019c70a84379d42b24a5d449828fbcc105cea64736f6c63430008040033",
  "linkReferences": {},
  "deployedLinkReferences": {}
}