{
  "_format": "hh-sol-artifact-1",
  "contractName": "MockBEP20Price",
  "sourceName": "contracts/mockup/MockBEP20Price.sol",
  "abi": [
    {
      "anonymous": false,
      "inputs": [
        {
          "indexed": true,
          "internalType": "address",
          "name": "previousOwner",
          "type": "address"
        },
        {
          "indexed": true,
          "internalType": "address",
          "name": "newOwner",
          "type": "address"
        }
      ],
      "name": "OwnershipTransferred",
      "type": "event"
    },
    {
      "inputs": [],
      "name": "getBNBPrice",
      "outputs": [
        {
          "internalType": "uint256",
          "name": "",
          "type": "uint256"
        }
      ],
      "stateMutability": "view",
      "type": "function"
    },
    {
      "inputs": [
        {
          "internalType": "address",
          "name": "_token",
          "type": "address"
        },
        {
          "internalType": "uint256",
          "name": "_digits",
          "type": "uint256"
        }
      ],
      "name": "getTokenPrice",
      "outputs": [
        {
          "internalType": "uint256",
          "name": "",
          "type": "uint256"
        }
      ],
      "stateMutability": "view",
      "type": "function"
    },
    {
      "inputs": [],
      "name": "owner",
      "outputs": [
        {
          "internalType": "address",
          "name": "",
          "type": "address"
        }
      ],
      "stateMutability": "view",
      "type": "function"
    },
    {
      "inputs": [],
      "name": "renounceOwnership",
      "outputs": [],
      "stateMutability": "nonpayable",
      "type": "function"
    },
    {
      "inputs": [
        {
          "internalType": "address",
          "name": "newOwner",
          "type": "address"
        }
      ],
      "name": "transferOwnership",
      "outputs": [],
      "stateMutability": "nonpayable",
      "type": "function"
    }
  ],
  "bytecode": "0x60806040526801a055690d9db8000060015534801561001d57600080fd5b5061003a61002f61003f60201b60201c565b61004760201b60201c565b61010b565b600033905090565b60008060009054906101000a900473ffffffffffffffffffffffffffffffffffffffff169050816000806101000a81548173ffffffffffffffffffffffffffffffffffffffff021916908373ffffffffffffffffffffffffffffffffffffffff1602179055508173ffffffffffffffffffffffffffffffffffffffff168173ffffffffffffffffffffffffffffffffffffffff167f8be0079c531659141344cd1fd0a4f28419497f9722a3daafe3b4186f6b6457e060405160405180910390a35050565b6106d78061011a6000396000f3fe608060405234801561001057600080fd5b50600436106100575760003560e01c8063715018a61461005c5780638da5cb5b14610066578063c9f7153c14610084578063f2220c9e146100b4578063f2fde38b146100d2575b600080fd5b6100646100ee565b005b61006e610176565b60405161007b91906104af565b60405180910390f35b61009e6004803603810190610099919061040f565b61019f565b6040516100ab919061050a565b60405180910390f35b6100bc6101c9565b6040516100c9919061050a565b60405180910390f35b6100ec60048036038101906100e791906103e6565b6101d8565b005b6100f66102d0565b73ffffffffffffffffffffffffffffffffffffffff16610114610176565b73ffffffffffffffffffffffffffffffffffffffff161461016a576040517f08c379a0000000000000000000000000000000000000000000000000000000008152600401610161906104ea565b60405180910390fd5b61017460006102d8565b565b60008060009054906101000a900473ffffffffffffffffffffffffffffffffffffffff16905090565b6000806101aa61039c565b90506101c06005826103a690919063ffffffff16565b91505092915050565b60006101d361039c565b905090565b6101e06102d0565b73ffffffffffffffffffffffffffffffffffffffff166101fe610176565b73ffffffffffffffffffffffffffffffffffffffff1614610254576040517f08c379a000000000000000000000000000000000000000000000000000000000815260040161024b906104ea565b60405180910390fd5b600073ffffffffffffffffffffffffffffffffffffffff168173ffffffffffffffffffffffffffffffffffffffff1614156102c4576040517f08c379a00000000000000000000000000000000000000000000000000000000081526004016102bb906104ca565b60405180910390fd5b6102cd816102d8565b50565b600033905090565b60008060009054906101000a900473ffffffffffffffffffffffffffffffffffffffff169050816000806101000a81548173ffffffffffffffffffffffffffffffffffffffff021916908373ffffffffffffffffffffffffffffffffffffffff1602179055508173ffffffffffffffffffffffffffffffffffffffff168173ffffffffffffffffffffffffffffffffffffffff167f8be0079c531659141344cd1fd0a4f28419497f9722a3daafe3b4186f6b6457e060405160405180910390a35050565b6000600154905090565b600081836103b49190610536565b905092915050565b6000813590506103cb81610673565b92915050565b6000813590506103e08161068a565b92915050565b6000602082840312156103f857600080fd5b6000610406848285016103bc565b91505092915050565b6000806040838503121561042257600080fd5b6000610430858286016103bc565b9250506020610441858286016103d1565b9150509250929050565b61045481610590565b82525050565b6000610467602683610525565b9150610472826105fb565b604082019050919050565b600061048a602083610525565b91506104958261064a565b602082019050919050565b6104a9816105c2565b82525050565b60006020820190506104c4600083018461044b565b92915050565b600060208201905081810360008301526104e38161045a565b9050919050565b600060208201905081810360008301526105038161047d565b9050919050565b600060208201905061051f60008301846104a0565b92915050565b600082825260208201905092915050565b6000610541826105c2565b915061054c836105c2565b9250817fffffffffffffffffffffffffffffffffffffffffffffffffffffffffffffffff0483118215151615610585576105846105cc565b5b828202905092915050565b600061059b826105a2565b9050919050565b600073ffffffffffffffffffffffffffffffffffffffff82169050919050565b6000819050919050565b7f4e487b7100000000000000000000000000000000000000000000000000000000600052601160045260246000fd5b7f4f776e61626c653a206e6577206f776e657220697320746865207a65726f206160008201527f6464726573730000000000000000000000000000000000000000000000000000602082015250565b7f4f776e61626c653a2063616c6c6572206973206e6f7420746865206f776e6572600082015250565b61067c81610590565b811461068757600080fd5b50565b610693816105c2565b811461069e57600080fd5b5056fea2646970667358221220d119705c0c30dd454f56670e0be72c266e8875d30af5b0bbcf1f01cf09243cc464736f6c63430008040033",
  "linkReferences": {},
  "deployedLinkReferences": {}
}