{
  "_format": "hh-sol-artifact-1",
  "contractName": "BEP20Price",
  "sourceName": "contracts/BEP20Price.sol",
  "abi": [
    {
      "anonymous": false,
      "inputs": [
        {
          "indexed": true,
          "internalType": "address",
          "name": "previousOwner",
          "type": "address"
        },
        {
          "indexed": true,
          "internalType": "address",
          "name": "newOwner",
          "type": "address"
        }
      ],
      "name": "OwnershipTransferred",
      "type": "event"
    },
    {
      "inputs": [],
      "name": "busdAddress",
      "outputs": [
        {
          "internalType": "address",
          "name": "",
          "type": "address"
        }
      ],
      "stateMutability": "view",
      "type": "function"
    },
    {
      "inputs": [],
      "name": "factoryAddress",
      "outputs": [
        {
          "internalType": "address",
          "name": "",
          "type": "address"
        }
      ],
      "stateMutability": "view",
      "type": "function"
    },
    {
      "inputs": [],
      "name": "getBNBPrice",
      "outputs": [
        {
          "internalType": "uint256",
          "name": "",
          "type": "uint256"
        }
      ],
      "stateMutability": "view",
      "type": "function"
    },
    {
      "inputs": [
        {
          "internalType": "address",
          "name": "_token",
          "type": "address"
        },
        {
          "internalType": "uint256",
          "name": "_digits",
          "type": "uint256"
        }
      ],
      "name": "getTokenPrice",
      "outputs": [
        {
          "internalType": "uint256",
          "name": "",
          "type": "uint256"
        }
      ],
      "stateMutability": "view",
      "type": "function"
    },
    {
      "inputs": [
        {
          "internalType": "address",
          "name": "_factoryAddress",
          "type": "address"
        },
        {
          "internalType": "address",
          "name": "_wbnbAddress",
          "type": "address"
        },
        {
          "internalType": "address",
          "name": "_busdAddress",
          "type": "address"
        }
      ],
      "name": "initialize",
      "outputs": [],
      "stateMutability": "nonpayable",
      "type": "function"
    },
    {
      "inputs": [],
      "name": "owner",
      "outputs": [
        {
          "internalType": "address",
          "name": "",
          "type": "address"
        }
      ],
      "stateMutability": "view",
      "type": "function"
    },
    {
      "inputs": [],
      "name": "renounceOwnership",
      "outputs": [],
      "stateMutability": "nonpayable",
      "type": "function"
    },
    {
      "inputs": [
        {
          "internalType": "address",
          "name": "newOwner",
          "type": "address"
        }
      ],
      "name": "transferOwnership",
      "outputs": [],
      "stateMutability": "nonpayable",
      "type": "function"
    },
    {
      "inputs": [],
      "name": "wbnbAddress",
      "outputs": [
        {
          "internalType": "address",
          "name": "",
          "type": "address"
        }
      ],
      "stateMutability": "view",
      "type": "function"
    }
  ],
  "bytecode": "0x608060405234801561001057600080fd5b5061002d61002261003260201b60201c565b61003a60201b60201c565b6100fe565b600033905090565b60008060009054906101000a900473ffffffffffffffffffffffffffffffffffffffff169050816000806101000a81548173ffffffffffffffffffffffffffffffffffffffff021916908373ffffffffffffffffffffffffffffffffffffffff1602179055508173ffffffffffffffffffffffffffffffffffffffff168173ffffffffffffffffffffffffffffffffffffffff167f8be0079c531659141344cd1fd0a4f28419497f9722a3daafe3b4186f6b6457e060405160405180910390a35050565b610e3c8061010d6000396000f3fe608060405234801561001057600080fd5b50600436106100935760003560e01c8063966dae0e11610066578063966dae0e146100fc578063c0c53b8b1461011a578063c9f7153c14610136578063f2220c9e14610166578063f2fde38b1461018457610093565b806363fe3e3a14610098578063715018a6146100b657806376a90231146100c05780638da5cb5b146100de575b600080fd5b6100a06101a0565b6040516100ad9190610b33565b60405180910390f35b6100be6101c6565b005b6100c861024e565b6040516100d59190610b33565b60405180910390f35b6100e6610274565b6040516100f39190610b33565b60405180910390f35b61010461029d565b6040516101119190610b33565b60405180910390f35b610134600480360381019061012f91906109f5565b6102c3565b005b610150600480360381019061014b9190610a44565b610407565b60405161015d9190610bb7565b60405180910390f35b61016e610478565b60405161017b9190610bb7565b60405180910390f35b61019e600480360381019061019991906109a3565b610487565b005b600260009054906101000a900473ffffffffffffffffffffffffffffffffffffffff1681565b6101ce61057f565b73ffffffffffffffffffffffffffffffffffffffff166101ec610274565b73ffffffffffffffffffffffffffffffffffffffff1614610242576040517f08c379a000000000000000000000000000000000000000000000000000000000815260040161023990610b97565b60405180910390fd5b61024c6000610587565b565b600360009054906101000a900473ffffffffffffffffffffffffffffffffffffffff1681565b60008060009054906101000a900473ffffffffffffffffffffffffffffffffffffffff16905090565b600160009054906101000a900473ffffffffffffffffffffffffffffffffffffffff1681565b6102cb61057f565b73ffffffffffffffffffffffffffffffffffffffff166102e9610274565b73ffffffffffffffffffffffffffffffffffffffff161461033f576040517f08c379a000000000000000000000000000000000000000000000000000000000815260040161033690610b97565b60405180910390fd5b82600160006101000a81548173ffffffffffffffffffffffffffffffffffffffff021916908373ffffffffffffffffffffffffffffffffffffffff16021790555081600260006101000a81548173ffffffffffffffffffffffffffffffffffffffff021916908373ffffffffffffffffffffffffffffffffffffffff16021790555080600360006101000a81548173ffffffffffffffffffffffffffffffffffffffff021916908373ffffffffffffffffffffffffffffffffffffffff160217905550505050565b600080600061043885600260009054906101000a900473ffffffffffffffffffffffffffffffffffffffff1661064b565b915091506000610446610883565b905061046d8361045f838561090e90919063ffffffff16565b61092490919063ffffffff16565b935050505092915050565b6000610482610883565b905090565b61048f61057f565b73ffffffffffffffffffffffffffffffffffffffff166104ad610274565b73ffffffffffffffffffffffffffffffffffffffff1614610503576040517f08c379a00000000000000000000000000000000000000000000000000000000081526004016104fa90610b97565b60405180910390fd5b600073ffffffffffffffffffffffffffffffffffffffff168173ffffffffffffffffffffffffffffffffffffffff161415610573576040517f08c379a000000000000000000000000000000000000000000000000000000000815260040161056a90610b77565b60405180910390fd5b61057c81610587565b50565b600033905090565b60008060009054906101000a900473ffffffffffffffffffffffffffffffffffffffff169050816000806101000a81548173ffffffffffffffffffffffffffffffffffffffff021916908373ffffffffffffffffffffffffffffffffffffffff1602179055508173ffffffffffffffffffffffffffffffffffffffff168173ffffffffffffffffffffffffffffffffffffffff167f8be0079c531659141344cd1fd0a4f28419497f9722a3daafe3b4186f6b6457e060405160405180910390a35050565b6000806000600160009054906101000a900473ffffffffffffffffffffffffffffffffffffffff1673ffffffffffffffffffffffffffffffffffffffff1663e6a4390586866040518363ffffffff1660e01b81526004016106ad929190610b4e565b60206040518083038186803b1580156106c557600080fd5b505afa1580156106d9573d6000803e3d6000fd5b505050506040513d601f19601f820116820180604052508101906106fd91906109cc565b905060008190506000808273ffffffffffffffffffffffffffffffffffffffff16630902f1ac6040518163ffffffff1660e01b815260040160606040518083038186803b15801561074d57600080fd5b505afa158015610761573d6000803e3d6000fd5b505050506040513d601f19601f820116820180604052508101906107859190610a80565b506dffffffffffffffffffffffffffff1691506dffffffffffffffffffffffffffff16915060008373ffffffffffffffffffffffffffffffffffffffff16630dfe16816040518163ffffffff1660e01b815260040160206040518083038186803b1580156107f257600080fd5b505afa158015610806573d6000803e3d6000fd5b505050506040513d601f19601f8201168201806040525081019061082a91906109cc565b90508873ffffffffffffffffffffffffffffffffffffffff168173ffffffffffffffffffffffffffffffffffffffff16141561087057828296509650505050505061087c565b81839650965050505050505b9250929050565b60008060006108d6600260009054906101000a900473ffffffffffffffffffffffffffffffffffffffff16600360009054906101000a900473ffffffffffffffffffffffffffffffffffffffff1661064b565b91509150610907826108f9670de0b6b3a76400008461090e90919063ffffffff16565b61092490919063ffffffff16565b9250505090565b6000818361091c9190610c14565b905092915050565b600081836109329190610be3565b905092915050565b60008135905061094981610daa565b92915050565b60008151905061095e81610daa565b92915050565b60008151905061097381610dc1565b92915050565b60008135905061098881610dd8565b92915050565b60008151905061099d81610def565b92915050565b6000602082840312156109b557600080fd5b60006109c38482850161093a565b91505092915050565b6000602082840312156109de57600080fd5b60006109ec8482850161094f565b91505092915050565b600080600060608486031215610a0a57600080fd5b6000610a188682870161093a565b9350506020610a298682870161093a565b9250506040610a3a8682870161093a565b9150509250925092565b60008060408385031215610a5757600080fd5b6000610a658582860161093a565b9250506020610a7685828601610979565b9150509250929050565b600080600060608486031215610a9557600080fd5b6000610aa386828701610964565b9350506020610ab486828701610964565b9250506040610ac58682870161098e565b9150509250925092565b610ad881610c6e565b82525050565b6000610aeb602683610bd2565b9150610af682610d32565b604082019050919050565b6000610b0e602083610bd2565b9150610b1982610d81565b602082019050919050565b610b2d81610cba565b82525050565b6000602082019050610b486000830184610acf565b92915050565b6000604082019050610b636000830185610acf565b610b706020830184610acf565b9392505050565b60006020820190508181036000830152610b9081610ade565b9050919050565b60006020820190508181036000830152610bb081610b01565b9050919050565b6000602082019050610bcc6000830184610b24565b92915050565b600082825260208201905092915050565b6000610bee82610cba565b9150610bf983610cba565b925082610c0957610c08610d03565b5b828204905092915050565b6000610c1f82610cba565b9150610c2a83610cba565b9250817fffffffffffffffffffffffffffffffffffffffffffffffffffffffffffffffff0483118215151615610c6357610c62610cd4565b5b828202905092915050565b6000610c7982610c9a565b9050919050565b60006dffffffffffffffffffffffffffff82169050919050565b600073ffffffffffffffffffffffffffffffffffffffff82169050919050565b6000819050919050565b600063ffffffff82169050919050565b7f4e487b7100000000000000000000000000000000000000000000000000000000600052601160045260246000fd5b7f4e487b7100000000000000000000000000000000000000000000000000000000600052601260045260246000fd5b7f4f776e61626c653a206e6577206f776e657220697320746865207a65726f206160008201527f6464726573730000000000000000000000000000000000000000000000000000602082015250565b7f4f776e61626c653a2063616c6c6572206973206e6f7420746865206f776e6572600082015250565b610db381610c6e565b8114610dbe57600080fd5b50565b610dca81610c80565b8114610dd557600080fd5b50565b610de181610cba565b8114610dec57600080fd5b50565b610df881610cc4565b8114610e0357600080fd5b5056fea26469706673582212207ca8f0e90f56bef31985671aef21b8b46643e800b4e3860568f4d81f1472559c64736f6c63430008040033",
  "linkReferences": {},
  "deployedLinkReferences": {}
}