{
  "_format": "hh-sol-artifact-1",
  "contractName": "ArcadeSwapV1",
  "sourceName": "contracts/ArcadeSwapV1.sol",
  "abi": [
    {
      "anonymous": false,
      "inputs": [
        {
          "indexed": false,
          "internalType": "address",
          "name": "previousAdmin",
          "type": "address"
        },
        {
          "indexed": false,
          "internalType": "address",
          "name": "newAdmin",
          "type": "address"
        }
      ],
      "name": "AdminChanged",
      "type": "event"
    },
    {
      "anonymous": false,
      "inputs": [
        {
          "indexed": true,
          "internalType": "address",
          "name": "beacon",
          "type": "address"
        }
      ],
      "name": "BeaconUpgraded",
      "type": "event"
    },
    {
      "anonymous": false,
      "inputs": [
        {
          "indexed": true,
          "internalType": "uint256",
          "name": "id",
          "type": "uint256"
        },
        {
          "indexed": true,
          "internalType": "uint256",
          "name": "tokenAmount",
          "type": "uint256"
        },
        {
          "indexed": true,
          "internalType": "uint256",
          "name": "gamePointAmount",
          "type": "uint256"
        },
        {
          "indexed": false,
          "internalType": "uint256",
          "name": "lastRate",
          "type": "uint256"
        }
      ],
      "name": "BuyGamePoint",
      "type": "event"
    },
    {
      "anonymous": false,
      "inputs": [
        {
          "indexed": true,
          "internalType": "address",
          "name": "previousOwner",
          "type": "address"
        },
        {
          "indexed": true,
          "internalType": "address",
          "name": "newOwner",
          "type": "address"
        }
      ],
      "name": "OwnershipTransferred",
      "type": "event"
    },
    {
      "anonymous": false,
      "inputs": [
        {
          "indexed": false,
          "internalType": "address",
          "name": "account",
          "type": "address"
        }
      ],
      "name": "Paused",
      "type": "event"
    },
    {
      "anonymous": false,
      "inputs": [
        {
          "indexed": true,
          "internalType": "uint256",
          "name": "id",
          "type": "uint256"
        },
        {
          "indexed": true,
          "internalType": "uint256",
          "name": "tokenAmount",
          "type": "uint256"
        },
        {
          "indexed": true,
          "internalType": "uint256",
          "name": "gamePointAmount",
          "type": "uint256"
        },
        {
          "indexed": false,
          "internalType": "uint256",
          "name": "rate",
          "type": "uint256"
        }
      ],
      "name": "SellGamePoint",
      "type": "event"
    },
    {
      "anonymous": false,
      "inputs": [
        {
          "indexed": false,
          "internalType": "address",
          "name": "account",
          "type": "address"
        }
      ],
      "name": "Unpaused",
      "type": "event"
    },
    {
      "anonymous": false,
      "inputs": [
        {
          "indexed": true,
          "internalType": "address",
          "name": "implementation",
          "type": "address"
        }
      ],
      "name": "Upgraded",
      "type": "event"
    },
    {
      "inputs": [
        {
          "internalType": "contract IERC20Upgradeable",
          "name": "_arcadeToken",
          "type": "address"
        },
        {
          "internalType": "contract IBEP20Price",
          "name": "_bep20Price",
          "type": "address"
        }
      ],
      "name": "__ArcadeSwap_init",
      "outputs": [],
      "stateMutability": "nonpayable",
      "type": "function"
    },
    {
      "inputs": [],
      "name": "arcadeToken",
      "outputs": [
        {
          "internalType": "contract IERC20Upgradeable",
          "name": "",
          "type": "address"
        }
      ],
      "stateMutability": "view",
      "type": "function"
    },
    {
      "inputs": [],
      "name": "bep20Price",
      "outputs": [
        {
          "internalType": "contract IBEP20Price",
          "name": "",
          "type": "address"
        }
      ],
      "stateMutability": "view",
      "type": "function"
    },
    {
      "inputs": [
        {
          "internalType": "uint256",
          "name": "_id",
          "type": "uint256"
        },
        {
          "internalType": "uint256",
          "name": "_amount",
          "type": "uint256"
        }
      ],
      "name": "buyGamePoint",
      "outputs": [],
      "stateMutability": "nonpayable",
      "type": "function"
    },
    {
      "inputs": [
        {
          "internalType": "uint256",
          "name": "",
          "type": "uint256"
        }
      ],
      "name": "gamePointPrice",
      "outputs": [
        {
          "internalType": "uint256",
          "name": "",
          "type": "uint256"
        }
      ],
      "stateMutability": "view",
      "type": "function"
    },
    {
      "inputs": [
        {
          "internalType": "address",
          "name": "_from",
          "type": "address"
        },
        {
          "internalType": "uint256",
          "name": "_id",
          "type": "uint256"
        }
      ],
      "name": "getGamePointRate",
      "outputs": [
        {
          "internalType": "uint256",
          "name": "",
          "type": "uint256"
        }
      ],
      "stateMutability": "view",
      "type": "function"
    },
    {
      "inputs": [],
      "name": "initialize",
      "outputs": [],
      "stateMutability": "nonpayable",
      "type": "function"
    },
    {
      "inputs": [],
      "name": "owner",
      "outputs": [
        {
          "internalType": "address",
          "name": "",
          "type": "address"
        }
      ],
      "stateMutability": "view",
      "type": "function"
    },
    {
      "inputs": [],
      "name": "paused",
      "outputs": [
        {
          "internalType": "bool",
          "name": "",
          "type": "bool"
        }
      ],
      "stateMutability": "view",
      "type": "function"
    },
    {
      "inputs": [],
      "name": "renounceOwnership",
      "outputs": [],
      "stateMutability": "nonpayable",
      "type": "function"
    },
    {
      "inputs": [
        {
          "internalType": "uint256",
          "name": "_id",
          "type": "uint256"
        },
        {
          "internalType": "uint256",
          "name": "_amount",
          "type": "uint256"
        },
        {
          "internalType": "bytes32",
          "name": "_verificationData",
          "type": "bytes32"
        }
      ],
      "name": "sellGamePoint",
      "outputs": [],
      "stateMutability": "nonpayable",
      "type": "function"
    },
    {
      "inputs": [
        {
          "internalType": "string",
          "name": "_key",
          "type": "string"
        }
      ],
      "name": "setArcadeBackendKey",
      "outputs": [],
      "stateMutability": "nonpayable",
      "type": "function"
    },
    {
      "inputs": [
        {
          "internalType": "contract IERC20Upgradeable",
          "name": "_arcadeToken",
          "type": "address"
        }
      ],
      "name": "setArcadeToken",
      "outputs": [],
      "stateMutability": "nonpayable",
      "type": "function"
    },
    {
      "inputs": [
        {
          "internalType": "contract IBEP20Price",
          "name": "_bep20Price",
          "type": "address"
        }
      ],
      "name": "setBep20Price",
      "outputs": [],
      "stateMutability": "nonpayable",
      "type": "function"
    },
    {
      "inputs": [
        {
          "internalType": "uint256",
          "name": "_id",
          "type": "uint256"
        },
        {
          "internalType": "uint256",
          "name": "_commission1",
          "type": "uint256"
        },
        {
          "internalType": "uint256",
          "name": "_commission2",
          "type": "uint256"
        },
        {
          "internalType": "address",
          "name": "_treasury1",
          "type": "address"
        },
        {
          "internalType": "address",
          "name": "_treasury2",
          "type": "address"
        }
      ],
      "name": "setCommission",
      "outputs": [],
      "stateMutability": "nonpayable",
      "type": "function"
    },
    {
      "inputs": [
        {
          "internalType": "uint256",
          "name": "_id",
          "type": "uint256"
        },
        {
          "internalType": "string",
          "name": "_key",
          "type": "string"
        }
      ],
      "name": "setGameBackendKey",
      "outputs": [],
      "stateMutability": "nonpayable",
      "type": "function"
    },
    {
      "inputs": [
        {
          "internalType": "uint256",
          "name": "_id",
          "type": "uint256"
        },
        {
          "internalType": "uint256",
          "name": "_price",
          "type": "uint256"
        }
      ],
      "name": "setGamePointPrice",
      "outputs": [],
      "stateMutability": "nonpayable",
      "type": "function"
    },
    {
      "inputs": [
        {
          "internalType": "address",
          "name": "newOwner",
          "type": "address"
        }
      ],
      "name": "transferOwnership",
      "outputs": [],
      "stateMutability": "nonpayable",
      "type": "function"
    },
    {
      "inputs": [
        {
          "internalType": "address",
          "name": "_to",
          "type": "address"
        },
        {
          "internalType": "uint256",
          "name": "_amount",
          "type": "uint256"
        }
      ],
      "name": "transferTo",
      "outputs": [],
      "stateMutability": "nonpayable",
      "type": "function"
    },
    {
      "inputs": [
        {
          "internalType": "address",
          "name": "newImplementation",
          "type": "address"
        }
      ],
      "name": "upgradeTo",
      "outputs": [],
      "stateMutability": "nonpayable",
      "type": "function"
    },
    {
      "inputs": [
        {
          "internalType": "address",
          "name": "newImplementation",
          "type": "address"
        },
        {
          "internalType": "bytes",
          "name": "data",
          "type": "bytes"
        }
      ],
      "name": "upgradeToAndCall",
      "outputs": [],
      "stateMutability": "payable",
      "type": "function"
    },
    {
      "inputs": [],
      "name": "version",
      "outputs": [
        {
          "internalType": "uint256",
          "name": "",
          "type": "uint256"
        }
      ],
      "stateMutability": "view",
      "type": "function"
    },
    {
      "inputs": [
        {
          "internalType": "uint256",
          "name": "_id",
          "type": "uint256"
        }
      ],
      "name": "viewCommission",
      "outputs": [
        {
          "components": [
            {
              "internalType": "uint256",
              "name": "commission1",
              "type": "uint256"
            },
            {
              "internalType": "uint256",
              "name": "commission2",
              "type": "uint256"
            },
            {
              "internalType": "address",
              "name": "treasuryAddress1",
              "type": "address"
            },
            {
              "internalType": "address",
              "name": "treasuryAddress2",
              "type": "address"
            }
          ],
          "internalType": "struct ArcadeSwapV1.Commission",
          "name": "",
          "type": "tuple"
        }
      ],
      "stateMutability": "view",
      "type": "function"
    }
  ],
  "bytecode": "0x60a06040523073ffffffffffffffffffffffffffffffffffffffff1660809073ffffffffffffffffffffffffffffffffffffffff1660601b81525034801561004657600080fd5b5060805160601c614f6a61007a60003960008181610dcb01528181610e5a01528181610f7a01526110090152614f6a6000f3fe6080604052600436106101405760003560e01c80638129fc1c116100b6578063dbb2fe631161006f578063dbb2fe63146103e9578063ddc0f3fc14610426578063e0cd6ef214610463578063e533da321461048c578063f0c07eca146104b7578063f2fde38b146104e057610140565b80638129fc1c146102ed5780638da5cb5b146103045780639fa0457f1461032f578063abbc512014610358578063ac22a7cd14610395578063d4ec15ba146103c057610140565b80634f1ef286116101085780634f1ef2861461021257806351d414d91461022e57806354fd4d50146102575780635c975abb1461028257806370f95116146102ad578063715018a6146102d657610140565b80630929277014610145578063218a35e61461016e5780632ccb1b301461019757806333b2bf63146101c05780633659cfe6146101e9575b600080fd5b34801561015157600080fd5b5061016c60048036038101906101679190613b7e565b610509565b005b34801561017a57600080fd5b5061019560048036038101906101909190613b7e565b6105e6565b005b3480156101a357600080fd5b506101be60048036038101906101b991906139a4565b610bca565b005b3480156101cc57600080fd5b506101e760048036038101906101e29190613a09565b610d08565b005b3480156101f557600080fd5b50610210600480360381019061020b9190613927565b610dc9565b005b61022c60048036038101906102279190613950565b610f78565b005b34801561023a57600080fd5b5061025560048036038101906102509190613c09565b6110b5565b005b34801561026357600080fd5b5061026c611282565b60405161027991906145b6565b60405180910390f35b34801561028e57600080fd5b50610297611289565b6040516102a49190614258565b60405180910390f35b3480156102b957600080fd5b506102d460048036038101906102cf9190613a32565b6112a0565b005b3480156102e257600080fd5b506102eb611361565b005b3480156102f957600080fd5b506103026113e9565b005b34801561031057600080fd5b5061031961152d565b60405161032691906141b4565b60405180910390f35b34801561033b57600080fd5b5061035660048036038101906103519190613bba565b611557565b005b34801561036457600080fd5b5061037f600480360381019061037a91906139a4565b611914565b60405161038c91906145b6565b60405180910390f35b3480156103a157600080fd5b506103aa611b66565b6040516103b79190614273565b60405180910390f35b3480156103cc57600080fd5b506103e760048036038101906103e29190613a5b565b611b8d565b005b3480156103f557600080fd5b50610410600480360381019061040b9190613ad8565b611cf4565b60405161041d919061459b565b60405180910390f35b34801561043257600080fd5b5061044d60048036038101906104489190613ad8565b611e26565b60405161045a91906145b6565b60405180910390f35b34801561046f57600080fd5b5061048a60048036038101906104859190613b2a565b611e3f565b005b34801561049857600080fd5b506104a1611f86565b6040516104ae919061428e565b60405180910390f35b3480156104c357600080fd5b506104de60048036038101906104d99190613a97565b611fad565b005b3480156104ec57600080fd5b5061050760048036038101906105029190613927565b61209e565b005b610511612196565b73ffffffffffffffffffffffffffffffffffffffff1661052f61152d565b73ffffffffffffffffffffffffffffffffffffffff1614610585576040517f08c379a000000000000000000000000000000000000000000000000000000000815260040161057c9061449b565b60405180910390fd5b60008114156105c9576040517f08c379a00000000000000000000000000000000000000000000000000000000081526004016105c09061451b565b60405180910390fd5b806101316000848152602001908152602001600020819055505050565b6002606554141561062c576040517f08c379a00000000000000000000000000000000000000000000000000000000081526004016106239061455b565b60405180910390fd5b60026065819055506000821415610678576040517f08c379a000000000000000000000000000000000000000000000000000000000815260040161066f906144db565b60405180910390fd5b60008114156106bc576040517f08c379a00000000000000000000000000000000000000000000000000000000081526004016106b39061431b565b60405180910390fd5b6000801b6101336000848152602001908152602001600020541415610716576040517f08c379a000000000000000000000000000000000000000000000000000000000815260040161070d906142fb565b60405180910390fd5b6000610131600084815260200190815260200160002054141561076e576040517f08c379a00000000000000000000000000000000000000000000000000000000081526004016107659061443b565b60405180910390fd5b60006107ae6127106107a06101306000878152602001908152602001600020600001548561219e90919063ffffffff16565b6121b490919063ffffffff16565b905060006107f06127106107e26101306000888152602001908152602001600020600101548661219e90919063ffffffff16565b6121b490919063ffffffff16565b905060008211156108835761088233610130600087815260200190815260200160002060020160009054906101000a900473ffffffffffffffffffffffffffffffffffffffff168461012e60009054906101000a900473ffffffffffffffffffffffffffffffffffffffff1673ffffffffffffffffffffffffffffffffffffffff166121ca909392919063ffffffff16565b5b60008111156109145761091333610130600087815260200190815260200160002060030160009054906101000a900473ffffffffffffffffffffffffffffffffffffffff168361012e60009054906101000a900473ffffffffffffffffffffffffffffffffffffffff1673ffffffffffffffffffffffffffffffffffffffff166121ca909392919063ffffffff16565b5b610988333061093e84610930878961225390919063ffffffff16565b61225390919063ffffffff16565b61012e60009054906101000a900473ffffffffffffffffffffffffffffffffffffffff1673ffffffffffffffffffffffffffffffffffffffff166121ca909392919063ffffffff16565b6000610a8261013160008781526020019081526020016000205461012f60009054906101000a900473ffffffffffffffffffffffffffffffffffffffff1673ffffffffffffffffffffffffffffffffffffffff1663c9f7153c61012e60009054906101000a900473ffffffffffffffffffffffffffffffffffffffff1660126040518363ffffffff1660e01b8152600401610a24929190614206565b60206040518083038186803b158015610a3c57600080fd5b505afa158015610a50573d6000803e3d6000fd5b505050506040513d601f19601f82011682018060405250810190610a749190613b01565b6121b490919063ffffffff16565b90506000610ab266038d7ea4c68000610aa4848861219e90919063ffffffff16565b6121b490919063ffffffff16565b90506000610ad1670de0b6b3a7640000836121b490919063ffffffff16565b9050610adf33888885612269565b610b1d6040518060400160405280601c81526020017f2d2d2d2d2d2d2d2d42757947616d65506f696e742d2d2d2d2d2d2d2d000000008152506123af565b610b2687612448565b610b2f86612448565b610b3881612448565b610b4183612448565b610b7f6040518060400160405280601c81526020017f2d2d2d2d2d2d2d2d2d2d2d2d2d2d2d2d2d2d2d2d2d2d2d2d2d2d2d2d000000008152506123af565b8086887f4725e36791a1c871eb97da1e96d3071e41c7a9dd27c51d489bef604d114d11a286604051610bb191906145b6565b60405180910390a4505050505060016065819055505050565b610bd2612196565b73ffffffffffffffffffffffffffffffffffffffff16610bf061152d565b73ffffffffffffffffffffffffffffffffffffffff1614610c46576040517f08c379a0000000000000000000000000000000000000000000000000000000008152600401610c3d9061449b565b60405180910390fd5b600073ffffffffffffffffffffffffffffffffffffffff168273ffffffffffffffffffffffffffffffffffffffff161415610cb6576040517f08c379a0000000000000000000000000000000000000000000000000000000008152600401610cad9061437b565b60405180910390fd5b610d04828261012e60009054906101000a900473ffffffffffffffffffffffffffffffffffffffff1673ffffffffffffffffffffffffffffffffffffffff166124e19092919063ffffffff16565b5050565b610d10612196565b73ffffffffffffffffffffffffffffffffffffffff16610d2e61152d565b73ffffffffffffffffffffffffffffffffffffffff1614610d84576040517f08c379a0000000000000000000000000000000000000000000000000000000008152600401610d7b9061449b565b60405180910390fd5b8061012f60006101000a81548173ffffffffffffffffffffffffffffffffffffffff021916908373ffffffffffffffffffffffffffffffffffffffff16021790555050565b7f000000000000000000000000000000000000000000000000000000000000000073ffffffffffffffffffffffffffffffffffffffff163073ffffffffffffffffffffffffffffffffffffffff161415610e58576040517f08c379a0000000000000000000000000000000000000000000000000000000008152600401610e4f9061439b565b60405180910390fd5b7f000000000000000000000000000000000000000000000000000000000000000073ffffffffffffffffffffffffffffffffffffffff16610e97612567565b73ffffffffffffffffffffffffffffffffffffffff1614610eed576040517f08c379a0000000000000000000000000000000000000000000000000000000008152600401610ee4906143fb565b60405180910390fd5b610ef6816125be565b610f7581600067ffffffffffffffff811115610f3b577f4e487b7100000000000000000000000000000000000000000000000000000000600052604160045260246000fd5b6040519080825280601f01601f191660200182016040528015610f6d5781602001600182028036833780820191505090505b50600061263d565b50565b7f000000000000000000000000000000000000000000000000000000000000000073ffffffffffffffffffffffffffffffffffffffff163073ffffffffffffffffffffffffffffffffffffffff161415611007576040517f08c379a0000000000000000000000000000000000000000000000000000000008152600401610ffe9061439b565b60405180910390fd5b7f000000000000000000000000000000000000000000000000000000000000000073ffffffffffffffffffffffffffffffffffffffff16611046612567565b73ffffffffffffffffffffffffffffffffffffffff161461109c576040517f08c379a0000000000000000000000000000000000000000000000000000000008152600401611093906143fb565b60405180910390fd5b6110a5826125be565b6110b18282600161263d565b5050565b6110bd612196565b73ffffffffffffffffffffffffffffffffffffffff166110db61152d565b73ffffffffffffffffffffffffffffffffffffffff1614611131576040517f08c379a00000000000000000000000000000000000000000000000000000000081526004016111289061449b565b60405180910390fd5b6000851415611175576040517f08c379a000000000000000000000000000000000000000000000000000000000815260040161116c906144db565b60405180910390fd5b60405180608001604052808581526020018481526020018373ffffffffffffffffffffffffffffffffffffffff1681526020018273ffffffffffffffffffffffffffffffffffffffff168152506101306000878152602001908152602001600020600082015181600001556020820151816001015560408201518160020160006101000a81548173ffffffffffffffffffffffffffffffffffffffff021916908373ffffffffffffffffffffffffffffffffffffffff16021790555060608201518160030160006101000a81548173ffffffffffffffffffffffffffffffffffffffff021916908373ffffffffffffffffffffffffffffffffffffffff1602179055509050505050505050565b61012d5481565b6000609760009054906101000a900460ff16905090565b6112a8612196565b73ffffffffffffffffffffffffffffffffffffffff166112c661152d565b73ffffffffffffffffffffffffffffffffffffffff161461131c576040517f08c379a00000000000000000000000000000000000000000000000000000000081526004016113139061449b565b60405180910390fd5b8061012e60006101000a81548173ffffffffffffffffffffffffffffffffffffffff021916908373ffffffffffffffffffffffffffffffffffffffff16021790555050565b611369612196565b73ffffffffffffffffffffffffffffffffffffffff1661138761152d565b73ffffffffffffffffffffffffffffffffffffffff16146113dd576040517f08c379a00000000000000000000000000000000000000000000000000000000081526004016113d49061449b565b60405180910390fd5b6113e7600061280e565b565b600060019054906101000a900460ff168061140f575060008054906101000a900460ff16155b61144e576040517f08c379a00000000000000000000000000000000000000000000000000000000081526004016114459061445b565b60405180910390fd5b60008060019054906101000a900460ff16159050801561149e576001600060016101000a81548160ff02191690831515021790555060016000806101000a81548160ff0219169083151502179055505b6114a66128d4565b6114ae6129bd565b6114b6612a9e565b6114be612b87565b600161012d819055506115096040518060400160405280600181526020017f760000000000000000000000000000000000000000000000000000000000000081525061012d54612c70565b801561152a5760008060016101000a81548160ff0219169083151502179055505b50565b6000603360009054906101000a900473ffffffffffffffffffffffffffffffffffffffff16905090565b6002606554141561159d576040517f08c379a00000000000000000000000000000000000000000000000000000000081526004016115949061455b565b60405180910390fd5b60026065819055506115b181338585612d0c565b6115f0576040517f08c379a00000000000000000000000000000000000000000000000000000000081526004016115e79061457b565b60405180910390fd5b60006115fc3385611914565b90506000611613828561219e90919063ffffffff16565b9050600061165561271061164761013060008a8152602001908152602001600020600001548561219e90919063ffffffff16565b6121b490919063ffffffff16565b9050600061169761271061168961013060008b8152602001908152602001600020600101548661219e90919063ffffffff16565b6121b490919063ffffffff16565b9050600082111561172857611727610130600089815260200190815260200160002060020160009054906101000a900473ffffffffffffffffffffffffffffffffffffffff168361012e60009054906101000a900473ffffffffffffffffffffffffffffffffffffffff1673ffffffffffffffffffffffffffffffffffffffff166124e19092919063ffffffff16565b5b60008111156117b7576117b6610130600089815260200190815260200160002060030160009054906101000a900473ffffffffffffffffffffffffffffffffffffffff168261012e60009054906101000a900473ffffffffffffffffffffffffffffffffffffffff1673ffffffffffffffffffffffffffffffffffffffff166124e19092919063ffffffff16565b5b611829336117e0836117d2868861225390919063ffffffff16565b61225390919063ffffffff16565b61012e60009054906101000a900473ffffffffffffffffffffffffffffffffffffffff1673ffffffffffffffffffffffffffffffffffffffff166124e19092919063ffffffff16565b6118676040518060400160405280601d81526020017f2d2d2d2d2d2d2d2d53656c6c47616d65506f696e742d2d2d2d2d2d2d2d0000008152506123af565b61187087612448565b61187983612448565b61188286612448565b61188b84612448565b6118c96040518060400160405280601c81526020017f2d2d2d2d2d2d2d2d2d2d2d2d2d2d2d2d2d2d2d2d2d2d2d2d2d2d2d2d000000008152506123af565b8583887f8b9e103600fd30f68595f82fb3c9af8a84ed316d3910137f229ebb8ad210c9a7876040516118fb91906145b6565b60405180910390a4505050506001606581905550505050565b60008061013560008573ffffffffffffffffffffffffffffffffffffffff1673ffffffffffffffffffffffffffffffffffffffff1681526020019081526020016000206000848152602001908152602001600020541415611a8e57611a8761012f60009054906101000a900473ffffffffffffffffffffffffffffffffffffffff1673ffffffffffffffffffffffffffffffffffffffff1663c9f7153c61012e60009054906101000a900473ffffffffffffffffffffffffffffffffffffffff1660126040518363ffffffff1660e01b81526004016119f4929190614206565b60206040518083038186803b158015611a0c57600080fd5b505afa158015611a20573d6000803e3d6000fd5b505050506040513d601f19601f82011682018060405250810190611a449190613b01565b611a796d314dc6448d9338c15b0a0000000061013160008781526020019081526020016000205461219e90919063ffffffff16565b6121b490919063ffffffff16565b9050611b60565b611b5d61013560008573ffffffffffffffffffffffffffffffffffffffff1673ffffffffffffffffffffffffffffffffffffffff168152602001908152602001600020600084815260200190815260200160002054611b4f670de0b6b3a764000061013460008873ffffffffffffffffffffffffffffffffffffffff1673ffffffffffffffffffffffffffffffffffffffff16815260200190815260200160002060008781526020019081526020016000205461219e90919063ffffffff16565b6121b490919063ffffffff16565b90505b92915050565b61012f60009054906101000a900473ffffffffffffffffffffffffffffffffffffffff1681565b600060019054906101000a900460ff1680611bb3575060008054906101000a900460ff16155b611bf2576040517f08c379a0000000000000000000000000000000000000000000000000000000008152600401611be99061445b565b60405180910390fd5b60008060019054906101000a900460ff161590508015611c42576001600060016101000a81548160ff02191690831515021790555060016000806101000a81548160ff0219169083151502179055505b611c4a6113e9565b8261012e60006101000a81548173ffffffffffffffffffffffffffffffffffffffff021916908373ffffffffffffffffffffffffffffffffffffffff1602179055508161012f60006101000a81548173ffffffffffffffffffffffffffffffffffffffff021916908373ffffffffffffffffffffffffffffffffffffffff1602179055508015611cef5760008060016101000a81548160ff0219169083151502179055505b505050565b611cfc613770565b6000821415611d40576040517f08c379a0000000000000000000000000000000000000000000000000000000008152600401611d37906144db565b60405180910390fd5b610130600083815260200190815260200160002060405180608001604052908160008201548152602001600182015481526020016002820160009054906101000a900473ffffffffffffffffffffffffffffffffffffffff1673ffffffffffffffffffffffffffffffffffffffff1673ffffffffffffffffffffffffffffffffffffffff1681526020016003820160009054906101000a900473ffffffffffffffffffffffffffffffffffffffff1673ffffffffffffffffffffffffffffffffffffffff1673ffffffffffffffffffffffffffffffffffffffff16815250509050919050565b6101316020528060005260406000206000915090505481565b611e47612196565b73ffffffffffffffffffffffffffffffffffffffff16611e6561152d565b73ffffffffffffffffffffffffffffffffffffffff1614611ebb576040517f08c379a0000000000000000000000000000000000000000000000000000000008152600401611eb29061449b565b60405180910390fd5b6000821415611eff576040517f08c379a0000000000000000000000000000000000000000000000000000000008152600401611ef6906144db565b60405180910390fd5b6000815111611f43576040517f08c379a0000000000000000000000000000000000000000000000000000000008152600401611f3a906143bb565b60405180910390fd5b80604051602001611f54919061414f565b604051602081830303815290604052805190602001206101336000848152602001908152602001600020819055505050565b61012e60009054906101000a900473ffffffffffffffffffffffffffffffffffffffff1681565b611fb5612196565b73ffffffffffffffffffffffffffffffffffffffff16611fd361152d565b73ffffffffffffffffffffffffffffffffffffffff1614612029576040517f08c379a00000000000000000000000000000000000000000000000000000000081526004016120209061449b565b60405180910390fd5b600081511161206d576040517f08c379a0000000000000000000000000000000000000000000000000000000008152600401612064906143bb565b60405180910390fd5b8060405160200161207e919061414f565b604051602081830303815290604052805190602001206101328190555050565b6120a6612196565b73ffffffffffffffffffffffffffffffffffffffff166120c461152d565b73ffffffffffffffffffffffffffffffffffffffff161461211a576040517f08c379a00000000000000000000000000000000000000000000000000000000081526004016121119061449b565b60405180910390fd5b600073ffffffffffffffffffffffffffffffffffffffff168173ffffffffffffffffffffffffffffffffffffffff16141561218a576040517f08c379a00000000000000000000000000000000000000000000000000000000081526004016121819061435b565b60405180910390fd5b6121938161280e565b50565b600033905090565b600081836121ac919061471c565b905092915050565b600081836121c291906146eb565b905092915050565b61224d846323b872dd60e01b8585856040516024016121eb939291906141cf565b604051602081830303815290604052907bffffffffffffffffffffffffffffffffffffffffffffffffffffffff19166020820180517bffffffffffffffffffffffffffffffffffffffffffffffffffffffff8381831617835250505050612d91565b50505050565b600081836122619190614776565b905092915050565b600073ffffffffffffffffffffffffffffffffffffffff168473ffffffffffffffffffffffffffffffffffffffff1614156122d9576040517f08c379a00000000000000000000000000000000000000000000000000000000081526004016122d0906143db565b60405180910390fd5b8161013460008673ffffffffffffffffffffffffffffffffffffffff1673ffffffffffffffffffffffffffffffffffffffff1681526020019081526020016000206000858152602001908152602001600020600082825461233a9190614695565b925050819055508061013560008673ffffffffffffffffffffffffffffffffffffffff1673ffffffffffffffffffffffffffffffffffffffff168152602001908152602001600020600085815260200190815260200160002060008282546123a29190614695565b9250508190555050505050565b612445816040516024016123c391906142a9565b6040516020818303038152906040527f41304fac000000000000000000000000000000000000000000000000000000007bffffffffffffffffffffffffffffffffffffffffffffffffffffffff19166020820180517bffffffffffffffffffffffffffffffffffffffffffffffffffffffff8381831617835250505050612e58565b50565b6124de8160405160240161245c91906145b6565b6040516020818303038152906040527ff5b1bba9000000000000000000000000000000000000000000000000000000007bffffffffffffffffffffffffffffffffffffffffffffffffffffffff19166020820180517bffffffffffffffffffffffffffffffffffffffffffffffffffffffff8381831617835250505050612e58565b50565b6125628363a9059cbb60e01b848460405160240161250092919061422f565b604051602081830303815290604052907bffffffffffffffffffffffffffffffffffffffffffffffffffffffff19166020820180517bffffffffffffffffffffffffffffffffffffffffffffffffffffffff8381831617835250505050612d91565b505050565b60006125957f360894a13ba1a3210667c828492db98dca3e2076cc3735a920a3ca505d382bbc60001b612e81565b60000160009054906101000a900473ffffffffffffffffffffffffffffffffffffffff16905090565b6125c6612196565b73ffffffffffffffffffffffffffffffffffffffff166125e461152d565b73ffffffffffffffffffffffffffffffffffffffff161461263a576040517f08c379a00000000000000000000000000000000000000000000000000000000081526004016126319061449b565b60405180910390fd5b50565b6000612647612567565b905061265284612e8b565b60008351118061265f5750815b156126705761266e8484612f44565b505b600061269e7f4910fdfa16fed3260ed0e7147f7cc6da11a60208b5b9406d12a635614ffd914360001b613028565b90508060000160009054906101000a900460ff166128075760018160000160006101000a81548160ff02191690831515021790555061276a85836040516024016126e891906141b4565b6040516020818303038152906040527f3659cfe6000000000000000000000000000000000000000000000000000000007bffffffffffffffffffffffffffffffffffffffffffffffffffffffff19166020820180517bffffffffffffffffffffffffffffffffffffffffffffffffffffffff8381831617835250505050612f44565b5060008160000160006101000a81548160ff021916908315150217905550612790612567565b73ffffffffffffffffffffffffffffffffffffffff168273ffffffffffffffffffffffffffffffffffffffff16146127fd576040517f08c379a00000000000000000000000000000000000000000000000000000000081526004016127f49061433b565b60405180910390fd5b61280685613032565b5b5050505050565b6000603360009054906101000a900473ffffffffffffffffffffffffffffffffffffffff16905081603360006101000a81548173ffffffffffffffffffffffffffffffffffffffff021916908373ffffffffffffffffffffffffffffffffffffffff1602179055508173ffffffffffffffffffffffffffffffffffffffff168173ffffffffffffffffffffffffffffffffffffffff167f8be0079c531659141344cd1fd0a4f28419497f9722a3daafe3b4186f6b6457e060405160405180910390a35050565b600060019054906101000a900460ff16806128fa575060008054906101000a900460ff16155b612939576040517f08c379a00000000000000000000000000000000000000000000000000000000081526004016129309061445b565b60405180910390fd5b60008060019054906101000a900460ff161590508015612989576001600060016101000a81548160ff02191690831515021790555060016000806101000a81548160ff0219169083151502179055505b612991613081565b61299961315a565b80156129ba5760008060016101000a81548160ff0219169083151502179055505b50565b600060019054906101000a900460ff16806129e3575060008054906101000a900460ff16155b612a22576040517f08c379a0000000000000000000000000000000000000000000000000000000008152600401612a199061445b565b60405180910390fd5b60008060019054906101000a900460ff161590508015612a72576001600060016101000a81548160ff02191690831515021790555060016000806101000a81548160ff0219169083151502179055505b612a7a613243565b8015612a9b5760008060016101000a81548160ff0219169083151502179055505b50565b600060019054906101000a900460ff1680612ac4575060008054906101000a900460ff16155b612b03576040517f08c379a0000000000000000000000000000000000000000000000000000000008152600401612afa9061445b565b60405180910390fd5b60008060019054906101000a900460ff161590508015612b53576001600060016101000a81548160ff02191690831515021790555060016000806101000a81548160ff0219169083151502179055505b612b5b613081565b612b63613324565b8015612b845760008060016101000a81548160ff0219169083151502179055505b50565b600060019054906101000a900460ff1680612bad575060008054906101000a900460ff16155b612bec576040517f08c379a0000000000000000000000000000000000000000000000000000000008152600401612be39061445b565b60405180910390fd5b60008060019054906101000a900460ff161590508015612c3c576001600060016101000a81548160ff02191690831515021790555060016000806101000a81548160ff0219169083151502179055505b612c44613418565b612c4c6134f1565b8015612c6d5760008060016101000a81548160ff0219169083151502179055505b50565b612d088282604051602401612c869291906142cb565b6040516020818303038152906040527f9710a9d0000000000000000000000000000000000000000000000000000000007bffffffffffffffffffffffffffffffffffffffffffffffffffffffff19166020820180517bffffffffffffffffffffffffffffffffffffffffffffffffffffffff8381831617835250505050612e58565b5050565b600080838584610133600088815260200190815260200160002054604051602001612d3a9493929190614166565b60405160208183030381529060405280519060200120905060008161013254604051602001612d6a92919061410c565b60405160208183030381529060405280519060200120905080871492505050949350505050565b6000612df3826040518060400160405280602081526020017f5361666545524332303a206c6f772d6c6576656c2063616c6c206661696c65648152508573ffffffffffffffffffffffffffffffffffffffff166135ca9092919063ffffffff16565b9050600081511115612e535780806020019051810190612e1391906139e0565b612e52576040517f08c379a0000000000000000000000000000000000000000000000000000000008152600401612e499061453b565b60405180910390fd5b5b505050565b60008151905060006a636f6e736f6c652e6c6f679050602083016000808483855afa5050505050565b6000819050919050565b612e94816135e2565b612ed3576040517f08c379a0000000000000000000000000000000000000000000000000000000008152600401612eca9061447b565b60405180910390fd5b80612f007f360894a13ba1a3210667c828492db98dca3e2076cc3735a920a3ca505d382bbc60001b612e81565b60000160006101000a81548173ffffffffffffffffffffffffffffffffffffffff021916908373ffffffffffffffffffffffffffffffffffffffff16021790555050565b6060612f4f836135e2565b612f8e576040517f08c379a0000000000000000000000000000000000000000000000000000000008152600401612f85906144bb565b60405180910390fd5b6000808473ffffffffffffffffffffffffffffffffffffffff1684604051612fb69190614138565b600060405180830381855af49150503d8060008114612ff1576040519150601f19603f3d011682016040523d82523d6000602084013e612ff6565b606091505b509150915061301e8282604051806060016040528060278152602001614f0e602791396135f5565b9250505092915050565b6000819050919050565b61303b81612e8b565b8073ffffffffffffffffffffffffffffffffffffffff167fbc7cd75a20ee27fd9adebab32041f755214dbc6bffa90cc0225b39da2e5c2d3b60405160405180910390a250565b600060019054906101000a900460ff16806130a7575060008054906101000a900460ff16155b6130e6576040517f08c379a00000000000000000000000000000000000000000000000000000000081526004016130dd9061445b565b60405180910390fd5b60008060019054906101000a900460ff161590508015613136576001600060016101000a81548160ff02191690831515021790555060016000806101000a81548160ff0219169083151502179055505b80156131575760008060016101000a81548160ff0219169083151502179055505b50565b600060019054906101000a900460ff1680613180575060008054906101000a900460ff16155b6131bf576040517f08c379a00000000000000000000000000000000000000000000000000000000081526004016131b69061445b565b60405180910390fd5b60008060019054906101000a900460ff16159050801561320f576001600060016101000a81548160ff02191690831515021790555060016000806101000a81548160ff0219169083151502179055505b61321f61321a612196565b61280e565b80156132405760008060016101000a81548160ff0219169083151502179055505b50565b600060019054906101000a900460ff1680613269575060008054906101000a900460ff16155b6132a8576040517f08c379a000000000000000000000000000000000000000000000000000000000815260040161329f9061445b565b60405180910390fd5b60008060019054906101000a900460ff1615905080156132f8576001600060016101000a81548160ff02191690831515021790555060016000806101000a81548160ff0219169083151502179055505b600160658190555080156133215760008060016101000a81548160ff0219169083151502179055505b50565b600060019054906101000a900460ff168061334a575060008054906101000a900460ff16155b613389576040517f08c379a00000000000000000000000000000000000000000000000000000000081526004016133809061445b565b60405180910390fd5b60008060019054906101000a900460ff1615905080156133d9576001600060016101000a81548160ff02191690831515021790555060016000806101000a81548160ff0219169083151502179055505b6000609760006101000a81548160ff02191690831515021790555080156134155760008060016101000a81548160ff0219169083151502179055505b50565b600060019054906101000a900460ff168061343e575060008054906101000a900460ff16155b61347d576040517f08c379a00000000000000000000000000000000000000000000000000000000081526004016134749061445b565b60405180910390fd5b60008060019054906101000a900460ff1615905080156134cd576001600060016101000a81548160ff02191690831515021790555060016000806101000a81548160ff0219169083151502179055505b80156134ee5760008060016101000a81548160ff0219169083151502179055505b50565b600060019054906101000a900460ff1680613517575060008054906101000a900460ff16155b613556576040517f08c379a000000000000000000000000000000000000000000000000000000000815260040161354d9061445b565b60405180910390fd5b60008060019054906101000a900460ff1615905080156135a6576001600060016101000a81548160ff02191690831515021790555060016000806101000a81548160ff0219169083151502179055505b80156135c75760008060016101000a81548160ff0219169083151502179055505b50565b60606135d9848460008561365c565b90509392505050565b600080823b905060008111915050919050565b6060831561360557829050613655565b6000835111156136185782518084602001fd5b816040517f08c379a000000000000000000000000000000000000000000000000000000000815260040161364c91906142a9565b60405180910390fd5b9392505050565b6060824710156136a1576040517f08c379a00000000000000000000000000000000000000000000000000000000081526004016136989061441b565b60405180910390fd5b6136aa856135e2565b6136e9576040517f08c379a00000000000000000000000000000000000000000000000000000000081526004016136e0906144fb565b60405180910390fd5b6000808673ffffffffffffffffffffffffffffffffffffffff1685876040516137129190614138565b60006040518083038185875af1925050503d806000811461374f576040519150601f19603f3d011682016040523d82523d6000602084013e613754565b606091505b50915091506137648282866135f5565b92505050949350505050565b60405180608001604052806000815260200160008152602001600073ffffffffffffffffffffffffffffffffffffffff168152602001600073ffffffffffffffffffffffffffffffffffffffff1681525090565b60006137d76137d2846145f6565b6145d1565b9050828152602081018484840111156137ef57600080fd5b6137fa84828561487a565b509392505050565b600061381561381084614627565b6145d1565b90508281526020810184848401111561382d57600080fd5b61383884828561487a565b509392505050565b60008135905061384f81614e83565b92915050565b60008151905061386481614e9a565b92915050565b60008135905061387981614eb1565b92915050565b600082601f83011261389057600080fd5b81356138a08482602086016137c4565b91505092915050565b6000813590506138b881614ec8565b92915050565b6000813590506138cd81614edf565b92915050565b600082601f8301126138e457600080fd5b81356138f4848260208601613802565b91505092915050565b60008135905061390c81614ef6565b92915050565b60008151905061392181614ef6565b92915050565b60006020828403121561393957600080fd5b600061394784828501613840565b91505092915050565b6000806040838503121561396357600080fd5b600061397185828601613840565b925050602083013567ffffffffffffffff81111561398e57600080fd5b61399a8582860161387f565b9150509250929050565b600080604083850312156139b757600080fd5b60006139c585828601613840565b92505060206139d6858286016138fd565b9150509250929050565b6000602082840312156139f257600080fd5b6000613a0084828501613855565b91505092915050565b600060208284031215613a1b57600080fd5b6000613a29848285016138a9565b91505092915050565b600060208284031215613a4457600080fd5b6000613a52848285016138be565b91505092915050565b60008060408385031215613a6e57600080fd5b6000613a7c858286016138be565b9250506020613a8d858286016138a9565b9150509250929050565b600060208284031215613aa957600080fd5b600082013567ffffffffffffffff811115613ac357600080fd5b613acf848285016138d3565b91505092915050565b600060208284031215613aea57600080fd5b6000613af8848285016138fd565b91505092915050565b600060208284031215613b1357600080fd5b6000613b2184828501613912565b91505092915050565b60008060408385031215613b3d57600080fd5b6000613b4b858286016138fd565b925050602083013567ffffffffffffffff811115613b6857600080fd5b613b74858286016138d3565b9150509250929050565b60008060408385031215613b9157600080fd5b6000613b9f858286016138fd565b9250506020613bb0858286016138fd565b9150509250929050565b600080600060608486031215613bcf57600080fd5b6000613bdd868287016138fd565b9350506020613bee868287016138fd565b9250506040613bff8682870161386a565b9150509250925092565b600080600080600060a08688031215613c2157600080fd5b6000613c2f888289016138fd565b9550506020613c40888289016138fd565b9450506040613c51888289016138fd565b9350506060613c6288828901613840565b9250506080613c7388828901613840565b9150509295509295909350565b613c89816147aa565b82525050565b613c98816147aa565b82525050565b613caf613caa826147aa565b6148ed565b82525050565b613cbe816147bc565b82525050565b613cd5613cd0826147c8565b6148ff565b82525050565b6000613ce682614658565b613cf0818561466e565b9350613d00818560208601614889565b80840191505092915050565b613d1581614820565b82525050565b613d2481614844565b82525050565b613d3381614868565b82525050565b6000613d4482614663565b613d4e8185614679565b9350613d5e818560208601614889565b613d67816149b2565b840191505092915050565b6000613d7d82614663565b613d87818561468a565b9350613d97818560208601614889565b80840191505092915050565b6000613db0601883614679565b9150613dbb826149d0565b602082019050919050565b6000613dd3601483614679565b9150613dde826149f9565b602082019050919050565b6000613df6602f83614679565b9150613e0182614a22565b604082019050919050565b6000613e19602683614679565b9150613e2482614a71565b604082019050919050565b6000613e3c601983614679565b9150613e4782614ac0565b602082019050919050565b6000613e5f602c83614679565b9150613e6a82614ae9565b604082019050919050565b6000613e82601883614679565b9150613e8d82614b38565b602082019050919050565b6000613ea5601683614679565b9150613eb082614b61565b602082019050919050565b6000613ec8602c83614679565b9150613ed382614b8a565b604082019050919050565b6000613eeb602683614679565b9150613ef682614bd9565b604082019050919050565b6000613f0e602083614679565b9150613f1982614c28565b602082019050919050565b6000613f31602e83614679565b9150613f3c82614c51565b604082019050919050565b6000613f54602d83614679565b9150613f5f82614ca0565b604082019050919050565b6000613f77602083614679565b9150613f8282614cef565b602082019050919050565b6000613f9a602683614679565b9150613fa582614d18565b604082019050919050565b6000613fbd601583614679565b9150613fc882614d67565b602082019050919050565b6000613fe0601d83614679565b9150613feb82614d90565b602082019050919050565b6000614003601483614679565b915061400e82614db9565b602082019050919050565b6000614026602a83614679565b915061403182614de2565b604082019050919050565b6000614049601f83614679565b915061405482614e31565b602082019050919050565b600061406c601f83614679565b915061407782614e5a565b602082019050919050565b60808201600082015161409860008501826140d7565b5060208201516140ab60208501826140d7565b5060408201516140be6040850182613c80565b5060608201516140d16060850182613c80565b50505050565b6140e081614816565b82525050565b6140ef81614816565b82525050565b61410661410182614816565b61491b565b82525050565b60006141188285613cc4565b6020820191506141288284613cc4565b6020820191508190509392505050565b60006141448284613cdb565b915081905092915050565b600061415b8284613d72565b915081905092915050565b600061417282876140f5565b6020820191506141828286613c9e565b60148201915061419282856140f5565b6020820191506141a28284613cc4565b60208201915081905095945050505050565b60006020820190506141c96000830184613c8f565b92915050565b60006060820190506141e46000830186613c8f565b6141f16020830185613c8f565b6141fe60408301846140e6565b949350505050565b600060408201905061421b6000830185613c8f565b6142286020830184613d2a565b9392505050565b60006040820190506142446000830185613c8f565b61425160208301846140e6565b9392505050565b600060208201905061426d6000830184613cb5565b92915050565b60006020820190506142886000830184613d0c565b92915050565b60006020820190506142a36000830184613d1b565b92915050565b600060208201905081810360008301526142c38184613d39565b905092915050565b600060408201905081810360008301526142e58185613d39565b90506142f460208301846140e6565b9392505050565b6000602082019050818103600083015261431481613da3565b9050919050565b6000602082019050818103600083015261433481613dc6565b9050919050565b6000602082019050818103600083015261435481613de9565b9050919050565b6000602082019050818103600083015261437481613e0c565b9050919050565b6000602082019050818103600083015261439481613e2f565b9050919050565b600060208201905081810360008301526143b481613e52565b9050919050565b600060208201905081810360008301526143d481613e75565b9050919050565b600060208201905081810360008301526143f481613e98565b9050919050565b6000602082019050818103600083015261441481613ebb565b9050919050565b6000602082019050818103600083015261443481613ede565b9050919050565b6000602082019050818103600083015261445481613f01565b9050919050565b6000602082019050818103600083015261447481613f24565b9050919050565b6000602082019050818103600083015261449481613f47565b9050919050565b600060208201905081810360008301526144b481613f6a565b9050919050565b600060208201905081810360008301526144d481613f8d565b9050919050565b600060208201905081810360008301526144f481613fb0565b9050919050565b6000602082019050818103600083015261451481613fd3565b9050919050565b6000602082019050818103600083015261453481613ff6565b9050919050565b6000602082019050818103600083015261455481614019565b9050919050565b600060208201905081810360008301526145748161403c565b9050919050565b600060208201905081810360008301526145948161405f565b9050919050565b60006080820190506145b06000830184614082565b92915050565b60006020820190506145cb60008301846140e6565b92915050565b60006145db6145ec565b90506145e782826148bc565b919050565b6000604051905090565b600067ffffffffffffffff82111561461157614610614983565b5b61461a826149b2565b9050602081019050919050565b600067ffffffffffffffff82111561464257614641614983565b5b61464b826149b2565b9050602081019050919050565b600081519050919050565b600081519050919050565b600081905092915050565b600082825260208201905092915050565b600081905092915050565b60006146a082614816565b91506146ab83614816565b9250827fffffffffffffffffffffffffffffffffffffffffffffffffffffffffffffffff038211156146e0576146df614925565b5b828201905092915050565b60006146f682614816565b915061470183614816565b92508261471157614710614954565b5b828204905092915050565b600061472782614816565b915061473283614816565b9250817fffffffffffffffffffffffffffffffffffffffffffffffffffffffffffffffff048311821515161561476b5761476a614925565b5b828202905092915050565b600061478182614816565b915061478c83614816565b92508282101561479f5761479e614925565b5b828203905092915050565b60006147b5826147f6565b9050919050565b60008115159050919050565b6000819050919050565b60006147dd826147aa565b9050919050565b60006147ef826147aa565b9050919050565b600073ffffffffffffffffffffffffffffffffffffffff82169050919050565b6000819050919050565b600061482b82614832565b9050919050565b600061483d826147f6565b9050919050565b600061484f82614856565b9050919050565b6000614861826147f6565b9050919050565b600061487382614816565b9050919050565b82818337600083830152505050565b60005b838110156148a757808201518184015260208101905061488c565b838111156148b6576000848401525b50505050565b6148c5826149b2565b810181811067ffffffffffffffff821117156148e4576148e3614983565b5b80604052505050565b60006148f882614909565b9050919050565b6000819050919050565b6000614914826149c3565b9050919050565b6000819050919050565b7f4e487b7100000000000000000000000000000000000000000000000000000000600052601160045260246000fd5b7f4e487b7100000000000000000000000000000000000000000000000000000000600052601260045260246000fd5b7f4e487b7100000000000000000000000000000000000000000000000000000000600052604160045260246000fd5b6000601f19601f8301169050919050565b60008160601b9050919050565b7f4e6f7420726567697374657265642067616d65206b65792e0000000000000000600082015250565b7f616d6f756e742063616e2774206265207a65726f000000000000000000000000600082015250565b7f45524331393637557067726164653a207570677261646520627265616b73206660008201527f7572746865722075706772616465730000000000000000000000000000000000602082015250565b7f4f776e61626c653a206e6577206f776e657220697320746865207a65726f206160008201527f6464726573730000000000000000000000000000000000000000000000000000602082015250565b7f5472616e7366657220746f207a65726f20616464726573732e00000000000000600082015250565b7f46756e6374696f6e206d7573742062652063616c6c6564207468726f7567682060008201527f64656c656761746563616c6c0000000000000000000000000000000000000000602082015250565b7f6b65792063616e2774206265206e6f6e6520737472696e670000000000000000600082015250565b7f416464726573732063616e2774206265207a65726f2e00000000000000000000600082015250565b7f46756e6374696f6e206d7573742062652063616c6c6564207468726f7567682060008201527f6163746976652070726f78790000000000000000000000000000000000000000602082015250565b7f416464726573733a20696e73756666696369656e742062616c616e636520666f60008201527f722063616c6c0000000000000000000000000000000000000000000000000000602082015250565b7f4e6f7420726567697374657265642067616d6520706f696e742070726963652e600082015250565b7f496e697469616c697a61626c653a20636f6e747261637420697320616c72656160008201527f647920696e697469616c697a6564000000000000000000000000000000000000602082015250565b7f455243313936373a206e657720696d706c656d656e746174696f6e206973206e60008201527f6f74206120636f6e747261637400000000000000000000000000000000000000602082015250565b7f4f776e61626c653a2063616c6c6572206973206e6f7420746865206f776e6572600082015250565b7f416464726573733a2064656c65676174652063616c6c20746f206e6f6e2d636f60008201527f6e74726163740000000000000000000000000000000000000000000000000000602082015250565b7f67616d652069642063616e2774206265207a65726f0000000000000000000000600082015250565b7f416464726573733a2063616c6c20746f206e6f6e2d636f6e7472616374000000600082015250565b7f50726963652063616e2774206265207a65726f2e000000000000000000000000600082015250565b7f5361666545524332303a204552433230206f7065726174696f6e20646964206e60008201527f6f74207375636365656400000000000000000000000000000000000000000000602082015250565b7f5265656e7472616e637947756172643a207265656e7472616e742063616c6c00600082015250565b7f566572696669636174696f6e206461746120697320696e636f72726563742e00600082015250565b614e8c816147aa565b8114614e9757600080fd5b50565b614ea3816147bc565b8114614eae57600080fd5b50565b614eba816147c8565b8114614ec557600080fd5b50565b614ed1816147d2565b8114614edc57600080fd5b50565b614ee8816147e4565b8114614ef357600080fd5b50565b614eff81614816565b8114614f0a57600080fd5b5056fe416464726573733a206c6f772d6c6576656c2064656c65676174652063616c6c206661696c6564a2646970667358221220b9b27fc7a3addb4f7ea2221455d3859a10f59943a86add6b9b24e8f315fa5c0664736f6c63430008040033",
  "linkReferences": {},
  "deployedLinkReferences": {}
}