{
  "_format": "hh-sol-artifact-1",
  "contractName": "ArcadeSwapV2",
  "sourceName": "contracts/ArcadeSwapV2.sol",
  "abi": [
    {
      "anonymous": false,
      "inputs": [
        {
          "indexed": false,
          "internalType": "address",
          "name": "previousAdmin",
          "type": "address"
        },
        {
          "indexed": false,
          "internalType": "address",
          "name": "newAdmin",
          "type": "address"
        }
      ],
      "name": "AdminChanged",
      "type": "event"
    },
    {
      "anonymous": false,
      "inputs": [
        {
          "indexed": true,
          "internalType": "address",
          "name": "beacon",
          "type": "address"
        }
      ],
      "name": "BeaconUpgraded",
      "type": "event"
    },
    {
      "anonymous": false,
      "inputs": [
        {
          "indexed": true,
          "internalType": "uint256",
          "name": "id",
          "type": "uint256"
        },
        {
          "indexed": true,
          "internalType": "uint256",
          "name": "tokenAmount",
          "type": "uint256"
        },
        {
          "indexed": true,
          "internalType": "uint256",
          "name": "gamePointAmount",
          "type": "uint256"
        },
        {
          "indexed": false,
          "internalType": "uint256",
          "name": "lastRate",
          "type": "uint256"
        }
      ],
      "name": "BuyGamePoint",
      "type": "event"
    },
    {
      "anonymous": false,
      "inputs": [
        {
          "indexed": true,
          "internalType": "address",
          "name": "previousOwner",
          "type": "address"
        },
        {
          "indexed": true,
          "internalType": "address",
          "name": "newOwner",
          "type": "address"
        }
      ],
      "name": "OwnershipTransferred",
      "type": "event"
    },
    {
      "anonymous": false,
      "inputs": [
        {
          "indexed": false,
          "internalType": "address",
          "name": "account",
          "type": "address"
        }
      ],
      "name": "Paused",
      "type": "event"
    },
    {
      "anonymous": false,
      "inputs": [
        {
          "indexed": true,
          "internalType": "uint256",
          "name": "id",
          "type": "uint256"
        },
        {
          "indexed": true,
          "internalType": "uint256",
          "name": "tokenAmount",
          "type": "uint256"
        },
        {
          "indexed": true,
          "internalType": "uint256",
          "name": "gamePointAmount",
          "type": "uint256"
        },
        {
          "indexed": false,
          "internalType": "uint256",
          "name": "rate",
          "type": "uint256"
        }
      ],
      "name": "SellGamePoint",
      "type": "event"
    },
    {
      "anonymous": false,
      "inputs": [
        {
          "indexed": false,
          "internalType": "uint256",
          "name": "_duration",
          "type": "uint256"
        }
      ],
      "name": "SetTxDuration",
      "type": "event"
    },
    {
      "anonymous": false,
      "inputs": [
        {
          "indexed": false,
          "internalType": "address",
          "name": "account",
          "type": "address"
        }
      ],
      "name": "Unpaused",
      "type": "event"
    },
    {
      "anonymous": false,
      "inputs": [
        {
          "indexed": true,
          "internalType": "address",
          "name": "implementation",
          "type": "address"
        }
      ],
      "name": "Upgraded",
      "type": "event"
    },
    {
      "inputs": [
        {
          "internalType": "contract IERC20Upgradeable",
          "name": "_arcadeToken",
          "type": "address"
        },
        {
          "internalType": "contract IBEP20Price",
          "name": "_bep20Price",
          "type": "address"
        }
      ],
      "name": "__ArcadeSwap_init",
      "outputs": [],
      "stateMutability": "nonpayable",
      "type": "function"
    },
    {
      "inputs": [],
      "name": "arcadeToken",
      "outputs": [
        {
          "internalType": "contract IERC20Upgradeable",
          "name": "",
          "type": "address"
        }
      ],
      "stateMutability": "view",
      "type": "function"
    },
    {
      "inputs": [],
      "name": "bep20Price",
      "outputs": [
        {
          "internalType": "contract IBEP20Price",
          "name": "",
          "type": "address"
        }
      ],
      "stateMutability": "view",
      "type": "function"
    },
    {
      "inputs": [
        {
          "internalType": "uint256",
          "name": "_id",
          "type": "uint256"
        },
        {
          "internalType": "uint256",
          "name": "_amount",
          "type": "uint256"
        }
      ],
      "name": "buyGamePoint",
      "outputs": [],
      "stateMutability": "nonpayable",
      "type": "function"
    },
    {
      "inputs": [
        {
          "internalType": "uint256",
          "name": "",
          "type": "uint256"
        }
      ],
      "name": "gamePointPrice",
      "outputs": [
        {
          "internalType": "uint256",
          "name": "",
          "type": "uint256"
        }
      ],
      "stateMutability": "view",
      "type": "function"
    },
    {
      "inputs": [
        {
          "internalType": "address",
          "name": "_from",
          "type": "address"
        },
        {
          "internalType": "uint256",
          "name": "_id",
          "type": "uint256"
        }
      ],
      "name": "getGamePointRate",
      "outputs": [
        {
          "internalType": "uint256",
          "name": "",
          "type": "uint256"
        }
      ],
      "stateMutability": "view",
      "type": "function"
    },
    {
      "inputs": [],
      "name": "initialize",
      "outputs": [],
      "stateMutability": "nonpayable",
      "type": "function"
    },
    {
      "inputs": [
        {
          "internalType": "address",
          "name": "_user",
          "type": "address"
        },
        {
          "internalType": "uint256",
          "name": "_id",
          "type": "uint256"
        }
      ],
      "name": "lastTxTime",
      "outputs": [
        {
          "internalType": "uint256",
          "name": "",
          "type": "uint256"
        }
      ],
      "stateMutability": "view",
      "type": "function"
    },
    {
      "inputs": [],
      "name": "owner",
      "outputs": [
        {
          "internalType": "address",
          "name": "",
          "type": "address"
        }
      ],
      "stateMutability": "view",
      "type": "function"
    },
    {
      "inputs": [],
      "name": "paused",
      "outputs": [
        {
          "internalType": "bool",
          "name": "",
          "type": "bool"
        }
      ],
      "stateMutability": "view",
      "type": "function"
    },
    {
      "inputs": [],
      "name": "renounceOwnership",
      "outputs": [],
      "stateMutability": "nonpayable",
      "type": "function"
    },
    {
      "inputs": [
        {
          "internalType": "uint256",
          "name": "_id",
          "type": "uint256"
        },
        {
          "internalType": "uint256",
          "name": "_amount",
          "type": "uint256"
        },
        {
          "internalType": "uint256",
          "name": "_snapshot",
          "type": "uint256"
        },
        {
          "internalType": "bytes32",
          "name": "_verificationData",
          "type": "bytes32"
        }
      ],
      "name": "sellGamePoint",
      "outputs": [],
      "stateMutability": "nonpayable",
      "type": "function"
    },
    {
      "inputs": [
        {
          "internalType": "string",
          "name": "_key",
          "type": "string"
        }
      ],
      "name": "setArcadeBackendKey",
      "outputs": [],
      "stateMutability": "nonpayable",
      "type": "function"
    },
    {
      "inputs": [
        {
          "internalType": "contract IERC20Upgradeable",
          "name": "_arcadeToken",
          "type": "address"
        }
      ],
      "name": "setArcadeToken",
      "outputs": [],
      "stateMutability": "nonpayable",
      "type": "function"
    },
    {
      "inputs": [
        {
          "internalType": "contract IBEP20Price",
          "name": "_bep20Price",
          "type": "address"
        }
      ],
      "name": "setBep20Price",
      "outputs": [],
      "stateMutability": "nonpayable",
      "type": "function"
    },
    {
      "inputs": [
        {
          "internalType": "uint256",
          "name": "_id",
          "type": "uint256"
        },
        {
          "internalType": "uint256",
          "name": "_commission1",
          "type": "uint256"
        },
        {
          "internalType": "uint256",
          "name": "_commission2",
          "type": "uint256"
        },
        {
          "internalType": "address",
          "name": "_treasury1",
          "type": "address"
        },
        {
          "internalType": "address",
          "name": "_treasury2",
          "type": "address"
        }
      ],
      "name": "setCommission",
      "outputs": [],
      "stateMutability": "nonpayable",
      "type": "function"
    },
    {
      "inputs": [
        {
          "internalType": "uint256",
          "name": "_id",
          "type": "uint256"
        },
        {
          "internalType": "string",
          "name": "_key",
          "type": "string"
        }
      ],
      "name": "setGameBackendKey",
      "outputs": [],
      "stateMutability": "nonpayable",
      "type": "function"
    },
    {
      "inputs": [
        {
          "internalType": "uint256",
          "name": "_id",
          "type": "uint256"
        },
        {
          "internalType": "uint256",
          "name": "_price",
          "type": "uint256"
        }
      ],
      "name": "setGamePointPrice",
      "outputs": [],
      "stateMutability": "nonpayable",
      "type": "function"
    },
    {
      "inputs": [
        {
          "internalType": "uint256",
          "name": "_duration",
          "type": "uint256"
        }
      ],
      "name": "setTxDuration",
      "outputs": [],
      "stateMutability": "nonpayable",
      "type": "function"
    },
    {
      "inputs": [
        {
          "internalType": "address",
          "name": "newOwner",
          "type": "address"
        }
      ],
      "name": "transferOwnership",
      "outputs": [],
      "stateMutability": "nonpayable",
      "type": "function"
    },
    {
      "inputs": [
        {
          "internalType": "address",
          "name": "_to",
          "type": "address"
        },
        {
          "internalType": "uint256",
          "name": "_amount",
          "type": "uint256"
        }
      ],
      "name": "transferTo",
      "outputs": [],
      "stateMutability": "nonpayable",
      "type": "function"
    },
    {
      "inputs": [],
      "name": "txDuration",
      "outputs": [
        {
          "internalType": "uint256",
          "name": "",
          "type": "uint256"
        }
      ],
      "stateMutability": "view",
      "type": "function"
    },
    {
      "inputs": [
        {
          "internalType": "address",
          "name": "newImplementation",
          "type": "address"
        }
      ],
      "name": "upgradeTo",
      "outputs": [],
      "stateMutability": "nonpayable",
      "type": "function"
    },
    {
      "inputs": [
        {
          "internalType": "address",
          "name": "newImplementation",
          "type": "address"
        },
        {
          "internalType": "bytes",
          "name": "data",
          "type": "bytes"
        }
      ],
      "name": "upgradeToAndCall",
      "outputs": [],
      "stateMutability": "payable",
      "type": "function"
    },
    {
      "inputs": [],
      "name": "upgradeToV2",
      "outputs": [],
      "stateMutability": "nonpayable",
      "type": "function"
    },
    {
      "inputs": [],
      "name": "version",
      "outputs": [
        {
          "internalType": "uint256",
          "name": "",
          "type": "uint256"
        }
      ],
      "stateMutability": "view",
      "type": "function"
    },
    {
      "inputs": [
        {
          "internalType": "uint256",
          "name": "_id",
          "type": "uint256"
        }
      ],
      "name": "viewCommission",
      "outputs": [
        {
          "components": [
            {
              "internalType": "uint256",
              "name": "commission1",
              "type": "uint256"
            },
            {
              "internalType": "uint256",
              "name": "commission2",
              "type": "uint256"
            },
            {
              "internalType": "address",
              "name": "treasuryAddress1",
              "type": "address"
            },
            {
              "internalType": "address",
              "name": "treasuryAddress2",
              "type": "address"
            }
          ],
          "internalType": "struct ArcadeSwapV2.Commission",
          "name": "",
          "type": "tuple"
        }
      ],
      "stateMutability": "view",
      "type": "function"
    }
  ],
  "bytecode": "0x60a06040523073ffffffffffffffffffffffffffffffffffffffff1660809073ffffffffffffffffffffffffffffffffffffffff1660601b81525034801561004657600080fd5b5060805160601c61579a6200007b60003960008181610fc701528181611056015281816111760152611205015261579a6000f3fe60806040526004361061019c5760003560e01c80638129fc1c116100ec578063ddc0f3fc1161008a578063e533da3211610064578063e533da3214610567578063f0c07eca14610592578063f2fde38b146105bb578063f5b6c661146105e45761019c565b8063ddc0f3fc146104d8578063de9cb6c814610515578063e0cd6ef21461053e5761019c565b8063ac22a7cd116100c6578063ac22a7cd14610430578063cc01053e1461045b578063d4ec15ba14610472578063dbb2fe631461049b5761019c565b80638129fc1c146103b15780638da5cb5b146103c8578063abbc5120146103f35761019c565b806351d414d91161015957806370f951161161013357806370f9511614610309578063715018a6146103325780637afd4b23146103495780637ebbc937146103745761019c565b806351d414d91461028a57806354fd4d50146102b35780635c975abb146102de5761019c565b806309292770146101a1578063218a35e6146101ca5780632ccb1b30146101f357806333b2bf631461021c5780633659cfe6146102455780634f1ef2861461026e575b600080fd5b3480156101ad57600080fd5b506101c860048036038101906101c39190614147565b61060d565b005b3480156101d657600080fd5b506101f160048036038101906101ec9190614147565b6106ea565b005b3480156101ff57600080fd5b5061021a60048036038101906102159190613f6d565b610dc6565b005b34801561022857600080fd5b50610243600480360381019061023e9190613fd2565b610f04565b005b34801561025157600080fd5b5061026c60048036038101906102679190613ef0565b610fc5565b005b61028860048036038101906102839190613f19565b611174565b005b34801561029657600080fd5b506102b160048036038101906102ac9190614183565b6112b1565b005b3480156102bf57600080fd5b506102c861147e565b6040516102d59190614cf3565b60405180910390f35b3480156102ea57600080fd5b506102f3611485565b60405161030091906148f5565b60405180910390f35b34801561031557600080fd5b50610330600480360381019061032b9190613ffb565b61149c565b005b34801561033e57600080fd5b5061034761155d565b005b34801561035557600080fd5b5061035e6115e5565b60405161036b9190614cf3565b60405180910390f35b34801561038057600080fd5b5061039b60048036038101906103969190613f6d565b6115ec565b6040516103a89190614cf3565b60405180910390f35b3480156103bd57600080fd5b506103c6611648565b005b3480156103d457600080fd5b506103dd61178c565b6040516103ea9190614851565b60405180910390f35b3480156103ff57600080fd5b5061041a60048036038101906104159190613f6d565b6117b6565b6040516104279190614cf3565b60405180910390f35b34801561043c57600080fd5b50610445611a08565b6040516104529190614910565b60405180910390f35b34801561046757600080fd5b50610470611a2f565b005b34801561047e57600080fd5b5061049960048036038101906104949190614024565b611ac2565b005b3480156104a757600080fd5b506104c260048036038101906104bd91906140a1565b611c29565b6040516104cf9190614cd8565b60405180910390f35b3480156104e457600080fd5b506104ff60048036038101906104fa91906140a1565b611d5b565b60405161050c9190614cf3565b60405180910390f35b34801561052157600080fd5b5061053c600480360381019061053791906140a1565b611d74565b005b34801561054a57600080fd5b50610565600480360381019061056091906140f3565b611ebb565b005b34801561057357600080fd5b5061057c612002565b604051610589919061492b565b60405180910390f35b34801561059e57600080fd5b506105b960048036038101906105b49190614060565b612029565b005b3480156105c757600080fd5b506105e260048036038101906105dd9190613ef0565b61211a565b005b3480156105f057600080fd5b5061060b600480360381019061060691906141fa565b612212565b005b61061561275c565b73ffffffffffffffffffffffffffffffffffffffff1661063361178c565b73ffffffffffffffffffffffffffffffffffffffff1614610689576040517f08c379a000000000000000000000000000000000000000000000000000000000815260040161068090614b98565b60405180910390fd5b60008114156106cd576040517f08c379a00000000000000000000000000000000000000000000000000000000081526004016106c490614c38565b60405180910390fd5b806101316000848152602001908152602001600020819055505050565b60026065541415610730576040517f08c379a000000000000000000000000000000000000000000000000000000000815260040161072790614c78565b60405180910390fd5b6002606581905550600082141561077c576040517f08c379a000000000000000000000000000000000000000000000000000000000815260040161077390614bf8565b60405180910390fd5b60008114156107c0576040517f08c379a00000000000000000000000000000000000000000000000000000000081526004016107b7906149b8565b60405180910390fd5b6000801b610133600084815260200190815260200160002054141561081a576040517f08c379a000000000000000000000000000000000000000000000000000000000815260040161081190614998565b60405180910390fd5b60006101316000848152602001908152602001600020541415610872576040517f08c379a000000000000000000000000000000000000000000000000000000000815260040161086990614b18565b60405180910390fd5b6101365461013760003373ffffffffffffffffffffffffffffffffffffffff1673ffffffffffffffffffffffffffffffffffffffff168152602001908152602001600020600084815260200190815260200160002054426108d39190614eb3565b1015610914576040517f08c379a000000000000000000000000000000000000000000000000000000000815260040161090b90614a18565b60405180910390fd5b60006109546127106109466101306000878152602001908152602001600020600001548561276490919063ffffffff16565b61277a90919063ffffffff16565b905060006109966127106109886101306000888152602001908152602001600020600101548661276490919063ffffffff16565b61277a90919063ffffffff16565b90506000821115610a2957610a2833610130600087815260200190815260200160002060020160009054906101000a900473ffffffffffffffffffffffffffffffffffffffff168461012e60009054906101000a900473ffffffffffffffffffffffffffffffffffffffff1673ffffffffffffffffffffffffffffffffffffffff16612790909392919063ffffffff16565b5b6000811115610aba57610ab933610130600087815260200190815260200160002060030160009054906101000a900473ffffffffffffffffffffffffffffffffffffffff168361012e60009054906101000a900473ffffffffffffffffffffffffffffffffffffffff1673ffffffffffffffffffffffffffffffffffffffff16612790909392919063ffffffff16565b5b610b2e3330610ae484610ad6878961281990919063ffffffff16565b61281990919063ffffffff16565b61012e60009054906101000a900473ffffffffffffffffffffffffffffffffffffffff1673ffffffffffffffffffffffffffffffffffffffff16612790909392919063ffffffff16565b6000610c2861013160008781526020019081526020016000205461012f60009054906101000a900473ffffffffffffffffffffffffffffffffffffffff1673ffffffffffffffffffffffffffffffffffffffff1663c9f7153c61012e60009054906101000a900473ffffffffffffffffffffffffffffffffffffffff1660126040518363ffffffff1660e01b8152600401610bca9291906148a3565b60206040518083038186803b158015610be257600080fd5b505afa158015610bf6573d6000803e3d6000fd5b505050506040513d601f19601f82011682018060405250810190610c1a91906140ca565b61277a90919063ffffffff16565b90506000610c5866038d7ea4c68000610c4a848861276490919063ffffffff16565b61277a90919063ffffffff16565b90506000610c77670de0b6b3a76400008361277a90919063ffffffff16565b9050610c853388888561282f565b610cc36040518060400160405280601c81526020017f2d2d2d2d2d2d2d2d42757947616d65506f696e742d2d2d2d2d2d2d2d00000000815250612975565b610ccc87612a0e565b610cd586612a0e565b610cde81612a0e565b610ce783612a0e565b610d256040518060400160405280601c81526020017f2d2d2d2d2d2d2d2d2d2d2d2d2d2d2d2d2d2d2d2d2d2d2d2d2d2d2d2d00000000815250612975565b4261013760003373ffffffffffffffffffffffffffffffffffffffff1673ffffffffffffffffffffffffffffffffffffffff1681526020019081526020016000206000898152602001908152602001600020819055508086887f4725e36791a1c871eb97da1e96d3071e41c7a9dd27c51d489bef604d114d11a286604051610dad9190614cf3565b60405180910390a4505050505060016065819055505050565b610dce61275c565b73ffffffffffffffffffffffffffffffffffffffff16610dec61178c565b73ffffffffffffffffffffffffffffffffffffffff1614610e42576040517f08c379a0000000000000000000000000000000000000000000000000000000008152600401610e3990614b98565b60405180910390fd5b600073ffffffffffffffffffffffffffffffffffffffff168273ffffffffffffffffffffffffffffffffffffffff161415610eb2576040517f08c379a0000000000000000000000000000000000000000000000000000000008152600401610ea990614a38565b60405180910390fd5b610f00828261012e60009054906101000a900473ffffffffffffffffffffffffffffffffffffffff1673ffffffffffffffffffffffffffffffffffffffff16612aa79092919063ffffffff16565b5050565b610f0c61275c565b73ffffffffffffffffffffffffffffffffffffffff16610f2a61178c565b73ffffffffffffffffffffffffffffffffffffffff1614610f80576040517f08c379a0000000000000000000000000000000000000000000000000000000008152600401610f7790614b98565b60405180910390fd5b8061012f60006101000a81548173ffffffffffffffffffffffffffffffffffffffff021916908373ffffffffffffffffffffffffffffffffffffffff16021790555050565b7f000000000000000000000000000000000000000000000000000000000000000073ffffffffffffffffffffffffffffffffffffffff163073ffffffffffffffffffffffffffffffffffffffff161415611054576040517f08c379a000000000000000000000000000000000000000000000000000000000815260040161104b90614a58565b60405180910390fd5b7f000000000000000000000000000000000000000000000000000000000000000073ffffffffffffffffffffffffffffffffffffffff16611093612b2d565b73ffffffffffffffffffffffffffffffffffffffff16146110e9576040517f08c379a00000000000000000000000000000000000000000000000000000000081526004016110e090614ab8565b60405180910390fd5b6110f281612b84565b61117181600067ffffffffffffffff811115611137577f4e487b7100000000000000000000000000000000000000000000000000000000600052604160045260246000fd5b6040519080825280601f01601f1916602001820160405280156111695781602001600182028036833780820191505090505b506000612c03565b50565b7f000000000000000000000000000000000000000000000000000000000000000073ffffffffffffffffffffffffffffffffffffffff163073ffffffffffffffffffffffffffffffffffffffff161415611203576040517f08c379a00000000000000000000000000000000000000000000000000000000081526004016111fa90614a58565b60405180910390fd5b7f000000000000000000000000000000000000000000000000000000000000000073ffffffffffffffffffffffffffffffffffffffff16611242612b2d565b73ffffffffffffffffffffffffffffffffffffffff1614611298576040517f08c379a000000000000000000000000000000000000000000000000000000000815260040161128f90614ab8565b60405180910390fd5b6112a182612b84565b6112ad82826001612c03565b5050565b6112b961275c565b73ffffffffffffffffffffffffffffffffffffffff166112d761178c565b73ffffffffffffffffffffffffffffffffffffffff161461132d576040517f08c379a000000000000000000000000000000000000000000000000000000000815260040161132490614b98565b60405180910390fd5b6000851415611371576040517f08c379a000000000000000000000000000000000000000000000000000000000815260040161136890614bf8565b60405180910390fd5b60405180608001604052808581526020018481526020018373ffffffffffffffffffffffffffffffffffffffff1681526020018273ffffffffffffffffffffffffffffffffffffffff168152506101306000878152602001908152602001600020600082015181600001556020820151816001015560408201518160020160006101000a81548173ffffffffffffffffffffffffffffffffffffffff021916908373ffffffffffffffffffffffffffffffffffffffff16021790555060608201518160030160006101000a81548173ffffffffffffffffffffffffffffffffffffffff021916908373ffffffffffffffffffffffffffffffffffffffff1602179055509050505050505050565b61012d5481565b6000609760009054906101000a900460ff16905090565b6114a461275c565b73ffffffffffffffffffffffffffffffffffffffff166114c261178c565b73ffffffffffffffffffffffffffffffffffffffff1614611518576040517f08c379a000000000000000000000000000000000000000000000000000000000815260040161150f90614b98565b60405180910390fd5b8061012e60006101000a81548173ffffffffffffffffffffffffffffffffffffffff021916908373ffffffffffffffffffffffffffffffffffffffff16021790555050565b61156561275c565b73ffffffffffffffffffffffffffffffffffffffff1661158361178c565b73ffffffffffffffffffffffffffffffffffffffff16146115d9576040517f08c379a00000000000000000000000000000000000000000000000000000000081526004016115d090614b98565b60405180910390fd5b6115e36000612dd4565b565b6101365481565b600061013760008473ffffffffffffffffffffffffffffffffffffffff1673ffffffffffffffffffffffffffffffffffffffff168152602001908152602001600020600083815260200190815260200160002054905092915050565b600060019054906101000a900460ff168061166e575060008054906101000a900460ff16155b6116ad576040517f08c379a00000000000000000000000000000000000000000000000000000000081526004016116a490614b38565b60405180910390fd5b60008060019054906101000a900460ff1615905080156116fd576001600060016101000a81548160ff02191690831515021790555060016000806101000a81548160ff0219169083151502179055505b611705612e9a565b61170d612f83565b611715613064565b61171d61314d565b600161012d819055506117686040518060400160405280600181526020017f760000000000000000000000000000000000000000000000000000000000000081525061012d54613236565b80156117895760008060016101000a81548160ff0219169083151502179055505b50565b6000603360009054906101000a900473ffffffffffffffffffffffffffffffffffffffff16905090565b60008061013560008573ffffffffffffffffffffffffffffffffffffffff1673ffffffffffffffffffffffffffffffffffffffff16815260200190815260200160002060008481526020019081526020016000205414156119305761192961012f60009054906101000a900473ffffffffffffffffffffffffffffffffffffffff1673ffffffffffffffffffffffffffffffffffffffff1663c9f7153c61012e60009054906101000a900473ffffffffffffffffffffffffffffffffffffffff1660126040518363ffffffff1660e01b81526004016118969291906148a3565b60206040518083038186803b1580156118ae57600080fd5b505afa1580156118c2573d6000803e3d6000fd5b505050506040513d601f19601f820116820180604052508101906118e691906140ca565b61191b6d314dc6448d9338c15b0a0000000061013160008781526020019081526020016000205461276490919063ffffffff16565b61277a90919063ffffffff16565b9050611a02565b6119ff61013560008573ffffffffffffffffffffffffffffffffffffffff1673ffffffffffffffffffffffffffffffffffffffff1681526020019081526020016000206000848152602001908152602001600020546119f1670de0b6b3a764000061013460008873ffffffffffffffffffffffffffffffffffffffff1673ffffffffffffffffffffffffffffffffffffffff16815260200190815260200160002060008781526020019081526020016000205461276490919063ffffffff16565b61277a90919063ffffffff16565b90505b92915050565b61012f60009054906101000a900473ffffffffffffffffffffffffffffffffffffffff1681565b600261012d5410611a75576040517f08c379a0000000000000000000000000000000000000000000000000000000008152600401611a6c90614c98565b60405180910390fd5b600261012d81905550611ac06040518060400160405280600181526020017f760000000000000000000000000000000000000000000000000000000000000081525061012d54613236565b565b600060019054906101000a900460ff1680611ae8575060008054906101000a900460ff16155b611b27576040517f08c379a0000000000000000000000000000000000000000000000000000000008152600401611b1e90614b38565b60405180910390fd5b60008060019054906101000a900460ff161590508015611b77576001600060016101000a81548160ff02191690831515021790555060016000806101000a81548160ff0219169083151502179055505b611b7f611648565b8261012e60006101000a81548173ffffffffffffffffffffffffffffffffffffffff021916908373ffffffffffffffffffffffffffffffffffffffff1602179055508161012f60006101000a81548173ffffffffffffffffffffffffffffffffffffffff021916908373ffffffffffffffffffffffffffffffffffffffff1602179055508015611c245760008060016101000a81548160ff0219169083151502179055505b505050565b611c31613d39565b6000821415611c75576040517f08c379a0000000000000000000000000000000000000000000000000000000008152600401611c6c90614bf8565b60405180910390fd5b610130600083815260200190815260200160002060405180608001604052908160008201548152602001600182015481526020016002820160009054906101000a900473ffffffffffffffffffffffffffffffffffffffff1673ffffffffffffffffffffffffffffffffffffffff1673ffffffffffffffffffffffffffffffffffffffff1681526020016003820160009054906101000a900473ffffffffffffffffffffffffffffffffffffffff1673ffffffffffffffffffffffffffffffffffffffff1673ffffffffffffffffffffffffffffffffffffffff16815250509050919050565b6101316020528060005260406000206000915090505481565b611d7c61275c565b73ffffffffffffffffffffffffffffffffffffffff16611d9a61178c565b73ffffffffffffffffffffffffffffffffffffffff1614611df0576040517f08c379a0000000000000000000000000000000000000000000000000000000008152600401611de790614b98565b60405180910390fd5b60008111611e33576040517f08c379a0000000000000000000000000000000000000000000000000000000008152600401611e2a90614b58565b60405180910390fd5b80610136541415611e79576040517f08c379a0000000000000000000000000000000000000000000000000000000008152600401611e7090614af8565b60405180910390fd5b80610136819055507f3e708db8fd81407fcdc49d551e106b475c77fc5ab085e189911e2ba1270061d981604051611eb09190614cf3565b60405180910390a150565b611ec361275c565b73ffffffffffffffffffffffffffffffffffffffff16611ee161178c565b73ffffffffffffffffffffffffffffffffffffffff1614611f37576040517f08c379a0000000000000000000000000000000000000000000000000000000008152600401611f2e90614b98565b60405180910390fd5b6000821415611f7b576040517f08c379a0000000000000000000000000000000000000000000000000000000008152600401611f7290614bf8565b60405180910390fd5b6000815111611fbf576040517f08c379a0000000000000000000000000000000000000000000000000000000008152600401611fb690614a78565b60405180910390fd5b80604051602001611fd091906147af565b604051602081830303815290604052805190602001206101336000848152602001908152602001600020819055505050565b61012e60009054906101000a900473ffffffffffffffffffffffffffffffffffffffff1681565b61203161275c565b73ffffffffffffffffffffffffffffffffffffffff1661204f61178c565b73ffffffffffffffffffffffffffffffffffffffff16146120a5576040517f08c379a000000000000000000000000000000000000000000000000000000000815260040161209c90614b98565b60405180910390fd5b60008151116120e9576040517f08c379a00000000000000000000000000000000000000000000000000000000081526004016120e090614a78565b60405180910390fd5b806040516020016120fa91906147af565b604051602081830303815290604052805190602001206101328190555050565b61212261275c565b73ffffffffffffffffffffffffffffffffffffffff1661214061178c565b73ffffffffffffffffffffffffffffffffffffffff1614612196576040517f08c379a000000000000000000000000000000000000000000000000000000000815260040161218d90614b98565b60405180910390fd5b600073ffffffffffffffffffffffffffffffffffffffff168173ffffffffffffffffffffffffffffffffffffffff161415612206576040517f08c379a00000000000000000000000000000000000000000000000000000000081526004016121fd906149f8565b60405180910390fd5b61220f81612dd4565b50565b60026065541415612258576040517f08c379a000000000000000000000000000000000000000000000000000000000815260040161224f90614c78565b60405180910390fd5b600260658190555061226d81338686866132d2565b6122ac576040517f08c379a00000000000000000000000000000000000000000000000000000000081526004016122a390614cb8565b60405180910390fd5b6101365461013760003373ffffffffffffffffffffffffffffffffffffffff1673ffffffffffffffffffffffffffffffffffffffff1681526020019081526020016000206000868152602001908152602001600020544261230d9190614eb3565b101561234e576040517f08c379a000000000000000000000000000000000000000000000000000000000815260040161234590614a18565b60405180910390fd5b8161013760003373ffffffffffffffffffffffffffffffffffffffff1673ffffffffffffffffffffffffffffffffffffffff168152602001908152602001600020600086815260200190815260200160002054106123e1576040517f08c379a00000000000000000000000000000000000000000000000000000000081526004016123d890614bb8565b60405180910390fd5b60006123ed33866117b6565b90506000612404828661276490919063ffffffff16565b9050600061244661271061243861013060008b8152602001908152602001600020600001548561276490919063ffffffff16565b61277a90919063ffffffff16565b9050600061248861271061247a61013060008c8152602001908152602001600020600101548661276490919063ffffffff16565b61277a90919063ffffffff16565b905060008211156125195761251861013060008a815260200190815260200160002060020160009054906101000a900473ffffffffffffffffffffffffffffffffffffffff168361012e60009054906101000a900473ffffffffffffffffffffffffffffffffffffffff1673ffffffffffffffffffffffffffffffffffffffff16612aa79092919063ffffffff16565b5b60008111156125a8576125a761013060008a815260200190815260200160002060030160009054906101000a900473ffffffffffffffffffffffffffffffffffffffff168261012e60009054906101000a900473ffffffffffffffffffffffffffffffffffffffff1673ffffffffffffffffffffffffffffffffffffffff16612aa79092919063ffffffff16565b5b61261a336125d1836125c3868861281990919063ffffffff16565b61281990919063ffffffff16565b61012e60009054906101000a900473ffffffffffffffffffffffffffffffffffffffff1673ffffffffffffffffffffffffffffffffffffffff16612aa79092919063ffffffff16565b6126586040518060400160405280601d81526020017f2d2d2d2d2d2d2d2d53656c6c47616d65506f696e742d2d2d2d2d2d2d2d000000815250612975565b61266188612a0e565b61266a83612a0e565b61267387612a0e565b61267c84612a0e565b6126ba6040518060400160405280601c81526020017f2d2d2d2d2d2d2d2d2d2d2d2d2d2d2d2d2d2d2d2d2d2d2d2d2d2d2d2d00000000815250612975565b4261013760003373ffffffffffffffffffffffffffffffffffffffff1673ffffffffffffffffffffffffffffffffffffffff16815260200190815260200160002060008a8152602001908152602001600020819055508683897f8b9e103600fd30f68595f82fb3c9af8a84ed316d3910137f229ebb8ad210c9a7876040516127429190614cf3565b60405180910390a450505050600160658190555050505050565b600033905090565b600081836127729190614e59565b905092915050565b600081836127889190614e28565b905092915050565b612813846323b872dd60e01b8585856040516024016127b19392919061486c565b604051602081830303815290604052907bffffffffffffffffffffffffffffffffffffffffffffffffffffffff19166020820180517bffffffffffffffffffffffffffffffffffffffffffffffffffffffff838183161783525050505061335a565b50505050565b600081836128279190614eb3565b905092915050565b600073ffffffffffffffffffffffffffffffffffffffff168473ffffffffffffffffffffffffffffffffffffffff16141561289f576040517f08c379a000000000000000000000000000000000000000000000000000000000815260040161289690614a98565b60405180910390fd5b8161013460008673ffffffffffffffffffffffffffffffffffffffff1673ffffffffffffffffffffffffffffffffffffffff168152602001908152602001600020600085815260200190815260200160002060008282546129009190614dd2565b925050819055508061013560008673ffffffffffffffffffffffffffffffffffffffff1673ffffffffffffffffffffffffffffffffffffffff168152602001908152602001600020600085815260200190815260200160002060008282546129689190614dd2565b9250508190555050505050565b612a0b816040516024016129899190614946565b6040516020818303038152906040527f41304fac000000000000000000000000000000000000000000000000000000007bffffffffffffffffffffffffffffffffffffffffffffffffffffffff19166020820180517bffffffffffffffffffffffffffffffffffffffffffffffffffffffff8381831617835250505050613421565b50565b612aa481604051602401612a229190614cf3565b6040516020818303038152906040527ff5b1bba9000000000000000000000000000000000000000000000000000000007bffffffffffffffffffffffffffffffffffffffffffffffffffffffff19166020820180517bffffffffffffffffffffffffffffffffffffffffffffffffffffffff8381831617835250505050613421565b50565b612b288363a9059cbb60e01b8484604051602401612ac69291906148cc565b604051602081830303815290604052907bffffffffffffffffffffffffffffffffffffffffffffffffffffffff19166020820180517bffffffffffffffffffffffffffffffffffffffffffffffffffffffff838183161783525050505061335a565b505050565b6000612b5b7f360894a13ba1a3210667c828492db98dca3e2076cc3735a920a3ca505d382bbc60001b61344a565b60000160009054906101000a900473ffffffffffffffffffffffffffffffffffffffff16905090565b612b8c61275c565b73ffffffffffffffffffffffffffffffffffffffff16612baa61178c565b73ffffffffffffffffffffffffffffffffffffffff1614612c00576040517f08c379a0000000000000000000000000000000000000000000000000000000008152600401612bf790614b98565b60405180910390fd5b50565b6000612c0d612b2d565b9050612c1884613454565b600083511180612c255750815b15612c3657612c34848461350d565b505b6000612c647f4910fdfa16fed3260ed0e7147f7cc6da11a60208b5b9406d12a635614ffd914360001b6135f1565b90508060000160009054906101000a900460ff16612dcd5760018160000160006101000a81548160ff021916908315150217905550612d308583604051602401612cae9190614851565b6040516020818303038152906040527f3659cfe6000000000000000000000000000000000000000000000000000000007bffffffffffffffffffffffffffffffffffffffffffffffffffffffff19166020820180517bffffffffffffffffffffffffffffffffffffffffffffffffffffffff838183161783525050505061350d565b5060008160000160006101000a81548160ff021916908315150217905550612d56612b2d565b73ffffffffffffffffffffffffffffffffffffffff168273ffffffffffffffffffffffffffffffffffffffff1614612dc3576040517f08c379a0000000000000000000000000000000000000000000000000000000008152600401612dba906149d8565b60405180910390fd5b612dcc856135fb565b5b5050505050565b6000603360009054906101000a900473ffffffffffffffffffffffffffffffffffffffff16905081603360006101000a81548173ffffffffffffffffffffffffffffffffffffffff021916908373ffffffffffffffffffffffffffffffffffffffff1602179055508173ffffffffffffffffffffffffffffffffffffffff168173ffffffffffffffffffffffffffffffffffffffff167f8be0079c531659141344cd1fd0a4f28419497f9722a3daafe3b4186f6b6457e060405160405180910390a35050565b600060019054906101000a900460ff1680612ec0575060008054906101000a900460ff16155b612eff576040517f08c379a0000000000000000000000000000000000000000000000000000000008152600401612ef690614b38565b60405180910390fd5b60008060019054906101000a900460ff161590508015612f4f576001600060016101000a81548160ff02191690831515021790555060016000806101000a81548160ff0219169083151502179055505b612f5761364a565b612f5f613723565b8015612f805760008060016101000a81548160ff0219169083151502179055505b50565b600060019054906101000a900460ff1680612fa9575060008054906101000a900460ff16155b612fe8576040517f08c379a0000000000000000000000000000000000000000000000000000000008152600401612fdf90614b38565b60405180910390fd5b60008060019054906101000a900460ff161590508015613038576001600060016101000a81548160ff02191690831515021790555060016000806101000a81548160ff0219169083151502179055505b61304061380c565b80156130615760008060016101000a81548160ff0219169083151502179055505b50565b600060019054906101000a900460ff168061308a575060008054906101000a900460ff16155b6130c9576040517f08c379a00000000000000000000000000000000000000000000000000000000081526004016130c090614b38565b60405180910390fd5b60008060019054906101000a900460ff161590508015613119576001600060016101000a81548160ff02191690831515021790555060016000806101000a81548160ff0219169083151502179055505b61312161364a565b6131296138ed565b801561314a5760008060016101000a81548160ff0219169083151502179055505b50565b600060019054906101000a900460ff1680613173575060008054906101000a900460ff16155b6131b2576040517f08c379a00000000000000000000000000000000000000000000000000000000081526004016131a990614b38565b60405180910390fd5b60008060019054906101000a900460ff161590508015613202576001600060016101000a81548160ff02191690831515021790555060016000806101000a81548160ff0219169083151502179055505b61320a6139e1565b613212613aba565b80156132335760008060016101000a81548160ff0219169083151502179055505b50565b6132ce828260405160240161324c929190614968565b6040516020818303038152906040527f9710a9d0000000000000000000000000000000000000000000000000000000007bffffffffffffffffffffffffffffffffffffffffffffffffffffffff19166020820180517bffffffffffffffffffffffffffffffffffffffffffffffffffffffff8381831617835250505050613421565b5050565b60008084868561013360008981526020019081526020016000205460405160200161330094939291906147c6565b604051602081830303815290604052805190602001209050600083826101325460405160200161333293929190614814565b6040516020818303038152906040528051906020012090508088149250505095945050505050565b60006133bc826040518060400160405280602081526020017f5361666545524332303a206c6f772d6c6576656c2063616c6c206661696c65648152508573ffffffffffffffffffffffffffffffffffffffff16613b939092919063ffffffff16565b905060008151111561341c57808060200190518101906133dc9190613fa9565b61341b576040517f08c379a000000000000000000000000000000000000000000000000000000000815260040161341290614c58565b60405180910390fd5b5b505050565b60008151905060006a636f6e736f6c652e6c6f679050602083016000808483855afa5050505050565b6000819050919050565b61345d81613bab565b61349c576040517f08c379a000000000000000000000000000000000000000000000000000000000815260040161349390614b78565b60405180910390fd5b806134c97f360894a13ba1a3210667c828492db98dca3e2076cc3735a920a3ca505d382bbc60001b61344a565b60000160006101000a81548173ffffffffffffffffffffffffffffffffffffffff021916908373ffffffffffffffffffffffffffffffffffffffff16021790555050565b606061351883613bab565b613557576040517f08c379a000000000000000000000000000000000000000000000000000000000815260040161354e90614bd8565b60405180910390fd5b6000808473ffffffffffffffffffffffffffffffffffffffff168460405161357f9190614798565b600060405180830381855af49150503d80600081146135ba576040519150601f19603f3d011682016040523d82523d6000602084013e6135bf565b606091505b50915091506135e7828260405180606001604052806027815260200161573e60279139613bbe565b9250505092915050565b6000819050919050565b61360481613454565b8073ffffffffffffffffffffffffffffffffffffffff167fbc7cd75a20ee27fd9adebab32041f755214dbc6bffa90cc0225b39da2e5c2d3b60405160405180910390a250565b600060019054906101000a900460ff1680613670575060008054906101000a900460ff16155b6136af576040517f08c379a00000000000000000000000000000000000000000000000000000000081526004016136a690614b38565b60405180910390fd5b60008060019054906101000a900460ff1615905080156136ff576001600060016101000a81548160ff02191690831515021790555060016000806101000a81548160ff0219169083151502179055505b80156137205760008060016101000a81548160ff0219169083151502179055505b50565b600060019054906101000a900460ff1680613749575060008054906101000a900460ff16155b613788576040517f08c379a000000000000000000000000000000000000000000000000000000000815260040161377f90614b38565b60405180910390fd5b60008060019054906101000a900460ff1615905080156137d8576001600060016101000a81548160ff02191690831515021790555060016000806101000a81548160ff0219169083151502179055505b6137e86137e361275c565b612dd4565b80156138095760008060016101000a81548160ff0219169083151502179055505b50565b600060019054906101000a900460ff1680613832575060008054906101000a900460ff16155b613871576040517f08c379a000000000000000000000000000000000000000000000000000000000815260040161386890614b38565b60405180910390fd5b60008060019054906101000a900460ff1615905080156138c1576001600060016101000a81548160ff02191690831515021790555060016000806101000a81548160ff0219169083151502179055505b600160658190555080156138ea5760008060016101000a81548160ff0219169083151502179055505b50565b600060019054906101000a900460ff1680613913575060008054906101000a900460ff16155b613952576040517f08c379a000000000000000000000000000000000000000000000000000000000815260040161394990614b38565b60405180910390fd5b60008060019054906101000a900460ff1615905080156139a2576001600060016101000a81548160ff02191690831515021790555060016000806101000a81548160ff0219169083151502179055505b6000609760006101000a81548160ff02191690831515021790555080156139de5760008060016101000a81548160ff0219169083151502179055505b50565b600060019054906101000a900460ff1680613a07575060008054906101000a900460ff16155b613a46576040517f08c379a0000000000000000000000000000000000000000000000000000000008152600401613a3d90614b38565b60405180910390fd5b60008060019054906101000a900460ff161590508015613a96576001600060016101000a81548160ff02191690831515021790555060016000806101000a81548160ff0219169083151502179055505b8015613ab75760008060016101000a81548160ff0219169083151502179055505b50565b600060019054906101000a900460ff1680613ae0575060008054906101000a900460ff16155b613b1f576040517f08c379a0000000000000000000000000000000000000000000000000000000008152600401613b1690614b38565b60405180910390fd5b60008060019054906101000a900460ff161590508015613b6f576001600060016101000a81548160ff02191690831515021790555060016000806101000a81548160ff0219169083151502179055505b8015613b905760008060016101000a81548160ff0219169083151502179055505b50565b6060613ba28484600085613c25565b90509392505050565b600080823b905060008111915050919050565b60608315613bce57829050613c1e565b600083511115613be15782518084602001fd5b816040517f08c379a0000000000000000000000000000000000000000000000000000000008152600401613c159190614946565b60405180910390fd5b9392505050565b606082471015613c6a576040517f08c379a0000000000000000000000000000000000000000000000000000000008152600401613c6190614ad8565b60405180910390fd5b613c7385613bab565b613cb2576040517f08c379a0000000000000000000000000000000000000000000000000000000008152600401613ca990614c18565b60405180910390fd5b6000808673ffffffffffffffffffffffffffffffffffffffff168587604051613cdb9190614798565b60006040518083038185875af1925050503d8060008114613d18576040519150601f19603f3d011682016040523d82523d6000602084013e613d1d565b606091505b5091509150613d2d828286613bbe565b92505050949350505050565b60405180608001604052806000815260200160008152602001600073ffffffffffffffffffffffffffffffffffffffff168152602001600073ffffffffffffffffffffffffffffffffffffffff1681525090565b6000613da0613d9b84614d33565b614d0e565b905082815260208101848484011115613db857600080fd5b613dc3848285614fb7565b509392505050565b6000613dde613dd984614d64565b614d0e565b905082815260208101848484011115613df657600080fd5b613e01848285614fb7565b509392505050565b600081359050613e18816156b3565b92915050565b600081519050613e2d816156ca565b92915050565b600081359050613e42816156e1565b92915050565b600082601f830112613e5957600080fd5b8135613e69848260208601613d8d565b91505092915050565b600081359050613e81816156f8565b92915050565b600081359050613e968161570f565b92915050565b600082601f830112613ead57600080fd5b8135613ebd848260208601613dcb565b91505092915050565b600081359050613ed581615726565b92915050565b600081519050613eea81615726565b92915050565b600060208284031215613f0257600080fd5b6000613f1084828501613e09565b91505092915050565b60008060408385031215613f2c57600080fd5b6000613f3a85828601613e09565b925050602083013567ffffffffffffffff811115613f5757600080fd5b613f6385828601613e48565b9150509250929050565b60008060408385031215613f8057600080fd5b6000613f8e85828601613e09565b9250506020613f9f85828601613ec6565b9150509250929050565b600060208284031215613fbb57600080fd5b6000613fc984828501613e1e565b91505092915050565b600060208284031215613fe457600080fd5b6000613ff284828501613e72565b91505092915050565b60006020828403121561400d57600080fd5b600061401b84828501613e87565b91505092915050565b6000806040838503121561403757600080fd5b600061404585828601613e87565b925050602061405685828601613e72565b9150509250929050565b60006020828403121561407257600080fd5b600082013567ffffffffffffffff81111561408c57600080fd5b61409884828501613e9c565b91505092915050565b6000602082840312156140b357600080fd5b60006140c184828501613ec6565b91505092915050565b6000602082840312156140dc57600080fd5b60006140ea84828501613edb565b91505092915050565b6000806040838503121561410657600080fd5b600061411485828601613ec6565b925050602083013567ffffffffffffffff81111561413157600080fd5b61413d85828601613e9c565b9150509250929050565b6000806040838503121561415a57600080fd5b600061416885828601613ec6565b925050602061417985828601613ec6565b9150509250929050565b600080600080600060a0868803121561419b57600080fd5b60006141a988828901613ec6565b95505060206141ba88828901613ec6565b94505060406141cb88828901613ec6565b93505060606141dc88828901613e09565b92505060806141ed88828901613e09565b9150509295509295909350565b6000806000806080858703121561421057600080fd5b600061421e87828801613ec6565b945050602061422f87828801613ec6565b935050604061424087828801613ec6565b925050606061425187828801613e33565b91505092959194509250565b61426681614ee7565b82525050565b61427581614ee7565b82525050565b61428c61428782614ee7565b61502a565b82525050565b61429b81614ef9565b82525050565b6142b26142ad82614f05565b61503c565b82525050565b60006142c382614d95565b6142cd8185614dab565b93506142dd818560208601614fc6565b80840191505092915050565b6142f281614f5d565b82525050565b61430181614f81565b82525050565b61431081614fa5565b82525050565b600061432182614da0565b61432b8185614db6565b935061433b818560208601614fc6565b614344816150ef565b840191505092915050565b600061435a82614da0565b6143648185614dc7565b9350614374818560208601614fc6565b80840191505092915050565b600061438d601883614db6565b91506143988261510d565b602082019050919050565b60006143b0601483614db6565b91506143bb82615136565b602082019050919050565b60006143d3602f83614db6565b91506143de8261515f565b604082019050919050565b60006143f6602683614db6565b9150614401826151ae565b604082019050919050565b6000614419601a83614db6565b9150614424826151fd565b602082019050919050565b600061443c601983614db6565b915061444782615226565b602082019050919050565b600061445f602c83614db6565b915061446a8261524f565b604082019050919050565b6000614482601883614db6565b915061448d8261529e565b602082019050919050565b60006144a5601683614db6565b91506144b0826152c7565b602082019050919050565b60006144c8602c83614db6565b91506144d3826152f0565b604082019050919050565b60006144eb602683614db6565b91506144f68261533f565b604082019050919050565b600061450e601283614db6565b91506145198261538e565b602082019050919050565b6000614531602083614db6565b915061453c826153b7565b602082019050919050565b6000614554602e83614db6565b915061455f826153e0565b604082019050919050565b6000614577601183614db6565b91506145828261542f565b602082019050919050565b600061459a602d83614db6565b91506145a582615458565b604082019050919050565b60006145bd602083614db6565b91506145c8826154a7565b602082019050919050565b60006145e0601d83614db6565b91506145eb826154d0565b602082019050919050565b6000614603602683614db6565b915061460e826154f9565b604082019050919050565b6000614626601583614db6565b915061463182615548565b602082019050919050565b6000614649601d83614db6565b915061465482615571565b602082019050919050565b600061466c601483614db6565b91506146778261559a565b602082019050919050565b600061468f602a83614db6565b915061469a826155c3565b604082019050919050565b60006146b2601f83614db6565b91506146bd82615612565b602082019050919050565b60006146d5602d83614db6565b91506146e08261563b565b604082019050919050565b60006146f8601f83614db6565b91506147038261568a565b602082019050919050565b6080820160008201516147246000850182614763565b5060208201516147376020850182614763565b50604082015161474a604085018261425d565b50606082015161475d606085018261425d565b50505050565b61476c81614f53565b82525050565b61477b81614f53565b82525050565b61479261478d82614f53565b615058565b82525050565b60006147a482846142b8565b915081905092915050565b60006147bb828461434f565b915081905092915050565b60006147d28287614781565b6020820191506147e2828661427b565b6014820191506147f28285614781565b60208201915061480282846142a1565b60208201915081905095945050505050565b60006148208286614781565b60208201915061483082856142a1565b60208201915061484082846142a1565b602082019150819050949350505050565b6000602082019050614866600083018461426c565b92915050565b6000606082019050614881600083018661426c565b61488e602083018561426c565b61489b6040830184614772565b949350505050565b60006040820190506148b8600083018561426c565b6148c56020830184614307565b9392505050565b60006040820190506148e1600083018561426c565b6148ee6020830184614772565b9392505050565b600060208201905061490a6000830184614292565b92915050565b600060208201905061492560008301846142e9565b92915050565b600060208201905061494060008301846142f8565b92915050565b600060208201905081810360008301526149608184614316565b905092915050565b600060408201905081810360008301526149828185614316565b90506149916020830184614772565b9392505050565b600060208201905081810360008301526149b181614380565b9050919050565b600060208201905081810360008301526149d1816143a3565b9050919050565b600060208201905081810360008301526149f1816143c6565b9050919050565b60006020820190508181036000830152614a11816143e9565b9050919050565b60006020820190508181036000830152614a318161440c565b9050919050565b60006020820190508181036000830152614a518161442f565b9050919050565b60006020820190508181036000830152614a7181614452565b9050919050565b60006020820190508181036000830152614a9181614475565b9050919050565b60006020820190508181036000830152614ab181614498565b9050919050565b60006020820190508181036000830152614ad1816144bb565b9050919050565b60006020820190508181036000830152614af1816144de565b9050919050565b60006020820190508181036000830152614b1181614501565b9050919050565b60006020820190508181036000830152614b3181614524565b9050919050565b60006020820190508181036000830152614b5181614547565b9050919050565b60006020820190508181036000830152614b718161456a565b9050919050565b60006020820190508181036000830152614b918161458d565b9050919050565b60006020820190508181036000830152614bb1816145b0565b9050919050565b60006020820190508181036000830152614bd1816145d3565b9050919050565b60006020820190508181036000830152614bf1816145f6565b9050919050565b60006020820190508181036000830152614c1181614619565b9050919050565b60006020820190508181036000830152614c318161463c565b9050919050565b60006020820190508181036000830152614c518161465f565b9050919050565b60006020820190508181036000830152614c7181614682565b9050919050565b60006020820190508181036000830152614c91816146a5565b9050919050565b60006020820190508181036000830152614cb1816146c8565b9050919050565b60006020820190508181036000830152614cd1816146eb565b9050919050565b6000608082019050614ced600083018461470e565b92915050565b6000602082019050614d086000830184614772565b92915050565b6000614d18614d29565b9050614d248282614ff9565b919050565b6000604051905090565b600067ffffffffffffffff821115614d4e57614d4d6150c0565b5b614d57826150ef565b9050602081019050919050565b600067ffffffffffffffff821115614d7f57614d7e6150c0565b5b614d88826150ef565b9050602081019050919050565b600081519050919050565b600081519050919050565b600081905092915050565b600082825260208201905092915050565b600081905092915050565b6000614ddd82614f53565b9150614de883614f53565b9250827fffffffffffffffffffffffffffffffffffffffffffffffffffffffffffffffff03821115614e1d57614e1c615062565b5b828201905092915050565b6000614e3382614f53565b9150614e3e83614f53565b925082614e4e57614e4d615091565b5b828204905092915050565b6000614e6482614f53565b9150614e6f83614f53565b9250817fffffffffffffffffffffffffffffffffffffffffffffffffffffffffffffffff0483118215151615614ea857614ea7615062565b5b828202905092915050565b6000614ebe82614f53565b9150614ec983614f53565b925082821015614edc57614edb615062565b5b828203905092915050565b6000614ef282614f33565b9050919050565b60008115159050919050565b6000819050919050565b6000614f1a82614ee7565b9050919050565b6000614f2c82614ee7565b9050919050565b600073ffffffffffffffffffffffffffffffffffffffff82169050919050565b6000819050919050565b6000614f6882614f6f565b9050919050565b6000614f7a82614f33565b9050919050565b6000614f8c82614f93565b9050919050565b6000614f9e82614f33565b9050919050565b6000614fb082614f53565b9050919050565b82818337600083830152505050565b60005b83811015614fe4578082015181840152602081019050614fc9565b83811115614ff3576000848401525b50505050565b615002826150ef565b810181811067ffffffffffffffff82111715615021576150206150c0565b5b80604052505050565b600061503582615046565b9050919050565b6000819050919050565b600061505182615100565b9050919050565b6000819050919050565b7f4e487b7100000000000000000000000000000000000000000000000000000000600052601160045260246000fd5b7f4e487b7100000000000000000000000000000000000000000000000000000000600052601260045260246000fd5b7f4e487b7100000000000000000000000000000000000000000000000000000000600052604160045260246000fd5b6000601f19601f8301169050919050565b60008160601b9050919050565b7f4e6f7420726567697374657265642067616d65206b65792e0000000000000000600082015250565b7f616d6f756e742063616e2774206265207a65726f000000000000000000000000600082015250565b7f45524331393637557067726164653a207570677261646520627265616b73206660008201527f7572746865722075706772616465730000000000000000000000000000000000602082015250565b7f4f776e61626c653a206e6577206f776e657220697320746865207a65726f206160008201527f6464726573730000000000000000000000000000000000000000000000000000602082015250565b7f4e6f742074696d6520746f206275792047616d6520506f696e74000000000000600082015250565b7f5472616e7366657220746f207a65726f20616464726573732e00000000000000600082015250565b7f46756e6374696f6e206d7573742062652063616c6c6564207468726f7567682060008201527f64656c656761746563616c6c0000000000000000000000000000000000000000602082015250565b7f6b65792063616e2774206265206e6f6e6520737472696e670000000000000000600082015250565b7f416464726573732063616e2774206265207a65726f2e00000000000000000000600082015250565b7f46756e6374696f6e206d7573742062652063616c6c6564207468726f7567682060008201527f6163746976652070726f78790000000000000000000000000000000000000000602082015250565b7f416464726573733a20696e73756666696369656e742062616c616e636520666f60008201527f722063616c6c0000000000000000000000000000000000000000000000000000602082015250565b7f446966666572656e74206475726174696f6e0000000000000000000000000000600082015250565b7f4e6f7420726567697374657265642067616d6520706f696e742070726963652e600082015250565b7f496e697469616c697a61626c653a20636f6e747261637420697320616c72656160008201527f647920696e697469616c697a6564000000000000000000000000000000000000602082015250565b7f4e6f6e2d7a65726f206475726174696f6e000000000000000000000000000000600082015250565b7f455243313936373a206e657720696d706c656d656e746174696f6e206973206e60008201527f6f74206120636f6e747261637400000000000000000000000000000000000000602082015250565b7f4f776e61626c653a2063616c6c6572206973206e6f7420746865206f776e6572600082015250565b7f416c72656164792070726f636573736564207472616e73616374696f6e000000600082015250565b7f416464726573733a2064656c65676174652063616c6c20746f206e6f6e2d636f60008201527f6e74726163740000000000000000000000000000000000000000000000000000602082015250565b7f67616d652069642063616e2774206265207a65726f0000000000000000000000600082015250565b7f416464726573733a2063616c6c20746f206e6f6e2d636f6e7472616374000000600082015250565b7f50726963652063616e2774206265207a65726f2e000000000000000000000000600082015250565b7f5361666545524332303a204552433230206f7065726174696f6e20646964206e60008201527f6f74207375636365656400000000000000000000000000000000000000000000602082015250565b7f5265656e7472616e637947756172643a207265656e7472616e742063616c6c00600082015250565b7f5370656369616c4c6f74746572793a20416c726561647920757067726164656460008201527f20746f2076657273696f6e203400000000000000000000000000000000000000602082015250565b7f566572696669636174696f6e206461746120697320696e636f72726563742e00600082015250565b6156bc81614ee7565b81146156c757600080fd5b50565b6156d381614ef9565b81146156de57600080fd5b50565b6156ea81614f05565b81146156f557600080fd5b50565b61570181614f0f565b811461570c57600080fd5b50565b61571881614f21565b811461572357600080fd5b50565b61572f81614f53565b811461573a57600080fd5b5056fe416464726573733a206c6f772d6c6576656c2064656c65676174652063616c6c206661696c6564a2646970667358221220f27148362a87ca90aa6f4f226d29e2325d2629cfdd68cacace11799e38c07a5864736f6c63430008040033",
  "linkReferences": {},
  "deployedLinkReferences": {}
}